{
  "contractName": "BaseCrowdsale",
  "abi": [
    {
      "constant": true,
      "inputs": [],
      "name": "maxTokensAmount",
      "outputs": [
        {
          "name": "",
          "type": "uint256"
        }
      ],
      "payable": false,
      "stateMutability": "view",
      "type": "function"
    },
    {
      "constant": true,
      "inputs": [],
      "name": "minBuyableAmount",
      "outputs": [
        {
          "name": "",
          "type": "uint256"
        }
      ],
      "payable": false,
      "stateMutability": "view",
      "type": "function"
    },
    {
      "constant": false,
      "inputs": [],
      "name": "pauseToken",
      "outputs": [
        {
          "name": "",
          "type": "bool"
        }
      ],
      "payable": false,
      "stateMutability": "nonpayable",
      "type": "function"
    },
    {
      "constant": true,
      "inputs": [],
      "name": "tokenRate",
      "outputs": [
        {
          "name": "",
          "type": "uint256"
        }
      ],
      "payable": false,
      "stateMutability": "view",
      "type": "function"
    },
    {
      "constant": false,
      "inputs": [],
      "name": "unpause",
      "outputs": [],
      "payable": false,
      "stateMutability": "nonpayable",
      "type": "function"
    },
    {
      "constant": false,
      "inputs": [],
      "name": "unpauseToken",
      "outputs": [
        {
          "name": "",
          "type": "bool"
        }
      ],
      "payable": false,
      "stateMutability": "nonpayable",
      "type": "function"
    },
    {
      "constant": true,
      "inputs": [],
      "name": "paused",
      "outputs": [
        {
          "name": "",
          "type": "bool"
        }
      ],
      "payable": false,
      "stateMutability": "view",
      "type": "function"
    },
    {
      "constant": false,
      "inputs": [
        {
          "name": "_tokenRate",
          "type": "uint256"
        }
      ],
      "name": "setTokenRate",
      "outputs": [],
      "payable": false,
      "stateMutability": "nonpayable",
      "type": "function"
    },
    {
      "constant": true,
      "inputs": [],
      "name": "bankAddress",
      "outputs": [
        {
          "name": "",
          "type": "address"
        }
      ],
      "payable": false,
      "stateMutability": "view",
      "type": "function"
    },
    {
      "constant": true,
      "inputs": [],
      "name": "isFinished",
      "outputs": [
        {
          "name": "",
          "type": "bool"
        }
      ],
      "payable": false,
      "stateMutability": "view",
      "type": "function"
    },
    {
      "constant": false,
      "inputs": [],
      "name": "pause",
      "outputs": [],
      "payable": false,
      "stateMutability": "nonpayable",
      "type": "function"
    },
    {
      "constant": true,
      "inputs": [],
      "name": "owner",
      "outputs": [
        {
          "name": "",
          "type": "address"
        }
      ],
      "payable": false,
      "stateMutability": "view",
      "type": "function"
    },
    {
      "constant": false,
      "inputs": [],
      "name": "buyTokens",
      "outputs": [],
      "payable": true,
      "stateMutability": "payable",
      "type": "function"
    },
    {
      "constant": false,
      "inputs": [
        {
          "name": "_minBuyableAmount",
          "type": "uint256"
        }
      ],
      "name": "setMinBuyableAmount",
      "outputs": [],
      "payable": false,
      "stateMutability": "nonpayable",
      "type": "function"
    },
    {
      "constant": false,
      "inputs": [],
      "name": "finish",
      "outputs": [],
      "payable": false,
      "stateMutability": "nonpayable",
      "type": "function"
    },
    {
      "constant": true,
      "inputs": [],
      "name": "issuedTokensAmount",
      "outputs": [
        {
          "name": "",
          "type": "uint256"
        }
      ],
      "payable": false,
      "stateMutability": "view",
      "type": "function"
    },
    {
      "constant": false,
      "inputs": [
        {
          "name": "newOwner",
          "type": "address"
        }
      ],
      "name": "transferOwnership",
      "outputs": [],
      "payable": false,
      "stateMutability": "nonpayable",
      "type": "function"
    },
    {
      "constant": true,
      "inputs": [],
      "name": "token",
      "outputs": [
        {
          "name": "",
          "type": "address"
        }
      ],
      "payable": false,
      "stateMutability": "view",
      "type": "function"
    },
    {
      "inputs": [
        {
          "name": "_tokenAddress",
          "type": "address"
        },
        {
          "name": "_bankAddress",
          "type": "address"
        },
        {
          "name": "_beneficiaryAddress",
          "type": "address"
        },
        {
          "name": "_tokenRate",
          "type": "uint256"
        },
        {
          "name": "_minBuyableAmount",
          "type": "uint256"
        },
        {
          "name": "_maxTokensAmount",
          "type": "uint256"
        },
        {
          "name": "_endDate",
          "type": "uint256"
        }
      ],
      "payable": false,
      "stateMutability": "nonpayable",
      "type": "constructor"
    },
    {
      "payable": true,
      "stateMutability": "payable",
      "type": "fallback"
    },
    {
      "anonymous": false,
      "inputs": [
        {
          "indexed": true,
          "name": "buyer",
          "type": "address"
        },
        {
          "indexed": false,
          "name": "tokens",
          "type": "uint256"
        },
        {
          "indexed": false,
          "name": "amount",
          "type": "uint256"
        }
      ],
      "name": "TokenBought",
      "type": "event"
    },
    {
      "anonymous": false,
      "inputs": [],
      "name": "Pause",
      "type": "event"
    },
    {
      "anonymous": false,
      "inputs": [],
      "name": "Unpause",
      "type": "event"
    },
    {
      "anonymous": false,
      "inputs": [
        {
          "indexed": true,
          "name": "previousOwner",
          "type": "address"
        },
        {
          "indexed": true,
          "name": "newOwner",
          "type": "address"
        }
      ],
      "name": "OwnershipTransferred",
      "type": "event"
    }
  ],
  "bytecode": "0x606060405260008060146101000a81548160ff02191690831515021790555060006005556000600960006101000a81548160ff021916908315150217905550341561004957600080fd5b60405160e0806200154183398101604052808051906020019091908051906020019091908051906020019091908051906020019091908051906020019091908051906020019091908051906020019091905050336000806101000a81548173ffffffffffffffffffffffffffffffffffffffff021916908373ffffffffffffffffffffffffffffffffffffffff16021790555086600360006101000a81548173ffffffffffffffffffffffffffffffffffffffff021916908373ffffffffffffffffffffffffffffffffffffffff16021790555085600260006101000a81548173ffffffffffffffffffffffffffffffffffffffff021916908373ffffffffffffffffffffffffffffffffffffffff16021790555084600160006101000a81548173ffffffffffffffffffffffffffffffffffffffff021916908373ffffffffffffffffffffffffffffffffffffffff160217905550836007819055506101ce670de0b6b3a76400008461021564010000000002611228179091906401000000009004565b6006819055506101fc670de0b6b3a76400008361021564010000000002611228179091906401000000009004565b6004819055508060088190555050505050505050610250565b600080600084141561022a5760009150610249565b828402905082848281151561023b57fe5b0414151561024557fe5b8091505b5092915050565b6112e180620002606000396000f3006060604052600436106100fc576000357c0100000000000000000000000000000000000000000000000000000000900463ffffffff1680630a384665146101065780632511b1821461012f5780632c3496271461015857806331711884146101855780633f4ba83a146101ae57806350669a03146101c35780635c975abb146101f057806361241c281461021d5780637822ed49146102405780637b352962146102955780638456cb59146102c25780638da5cb5b146102d7578063d0febe4c1461032c578063d561ef2b14610336578063d56b288914610359578063e69b414b1461036e578063f2fde38b14610397578063fc0c546a146103d0575b610104610425565b005b341561011157600080fd5b610119610726565b6040518082815260200191505060405180910390f35b341561013a57600080fd5b61014261072c565b6040518082815260200191505060405180910390f35b341561016357600080fd5b61016b610732565b604051808215151515815260200191505060405180910390f35b341561019057600080fd5b6101986108e4565b6040518082815260200191505060405180910390f35b34156101b957600080fd5b6101c16108ea565b005b34156101ce57600080fd5b6101d66109a8565b604051808215151515815260200191505060405180910390f35b34156101fb57600080fd5b610203610b59565b604051808215151515815260200191505060405180910390f35b341561022857600080fd5b61023e6004808035906020019091905050610b6c565b005b341561024b57600080fd5b610253610c1f565b604051808273ffffffffffffffffffffffffffffffffffffffff1673ffffffffffffffffffffffffffffffffffffffff16815260200191505060405180910390f35b34156102a057600080fd5b6102a8610c45565b604051808215151515815260200191505060405180910390f35b34156102cd57600080fd5b6102d5610c58565b005b34156102e257600080fd5b6102ea610d18565b604051808273ffffffffffffffffffffffffffffffffffffffff1673ffffffffffffffffffffffffffffffffffffffff16815260200191505060405180910390f35b610334610425565b005b341561034157600080fd5b6103576004808035906020019091905050610d3d565b005b341561036457600080fd5b61036c610e0a565b005b341561037957600080fd5b6103816110a7565b6040518082815260200191505060405180910390f35b34156103a257600080fd5b6103ce600480803573ffffffffffffffffffffffffffffffffffffffff169060200190919050506110ad565b005b34156103db57600080fd5b6103e3611202565b604051808273ffffffffffffffffffffffffffffffffffffffff1673ffffffffffffffffffffffffffffffffffffffff16815260200191505060405180910390f35b6000806000600960009054906101000a900460ff1615151561044657600080fd5b60045460055410151561045857600080fd5b600854421115151561046957600080fd5b600060149054906101000a900460ff1615151561048557600080fd5b600654341015151561049657600080fd5b349250600091506104b28360075461122890919063ffffffff16565b905060045481600554011115610508576104d960055460045461126390919063ffffffff16565b90506104f06007548261127c90919063ffffffff16565b9250610505833461126390919063ffffffff16565b91505b61051d8160055461129790919063ffffffff16565b6005819055506004546005541115151561053657600080fd5b600360009054906101000a900473ffffffffffffffffffffffffffffffffffffffff1673ffffffffffffffffffffffffffffffffffffffff1663a9059cbb33836000604051602001526040518363ffffffff167c0100000000000000000000000000000000000000000000000000000000028152600401808373ffffffffffffffffffffffffffffffffffffffff1673ffffffffffffffffffffffffffffffffffffffff16815260200182815260200192505050602060405180830381600087803b151561060357600080fd5b6102c65a03f1151561061457600080fd5b50505060405180519050503373ffffffffffffffffffffffffffffffffffffffff167f28cab0d660ed8aedd61a8c9db00b97f6a2d67e07d87795994f440b18bc5f1aa38285604051808381526020018281526020019250505060405180910390a2600160009054906101000a900473ffffffffffffffffffffffffffffffffffffffff1673ffffffffffffffffffffffffffffffffffffffff166108fc849081150290604051600060405180830381858888f1935050505015156106d757600080fd5b6000821115610721573373ffffffffffffffffffffffffffffffffffffffff166108fc839081150290604051600060405180830381858888f19350505050151561072057600080fd5b5b505050565b60045481565b60065481565b60008060009054906101000a900473ffffffffffffffffffffffffffffffffffffffff1673ffffffffffffffffffffffffffffffffffffffff163373ffffffffffffffffffffffffffffffffffffffff1614151561078f57600080fd5b600360009054906101000a900473ffffffffffffffffffffffffffffffffffffffff1673ffffffffffffffffffffffffffffffffffffffff16635c975abb6000604051602001526040518163ffffffff167c0100000000000000000000000000000000000000000000000000000000028152600401602060405180830381600087803b151561081d57600080fd5b6102c65a03f1151561082e57600080fd5b5050506040518051905015151561084457600080fd5b600360009054906101000a900473ffffffffffffffffffffffffffffffffffffffff1673ffffffffffffffffffffffffffffffffffffffff16638456cb596040518163ffffffff167c0100000000000000000000000000000000000000000000000000000000028152600401600060405180830381600087803b15156108c957600080fd5b6102c65a03f115156108da57600080fd5b5050506001905090565b60075481565b6000809054906101000a900473ffffffffffffffffffffffffffffffffffffffff1673ffffffffffffffffffffffffffffffffffffffff163373ffffffffffffffffffffffffffffffffffffffff1614151561094557600080fd5b600060149054906101000a900460ff16151561096057600080fd5b60008060146101000a81548160ff0219169083151502179055507f7805862f689e2f13df9f062ff482ad3ad112aca9e0847911ed832e158c525b3360405160405180910390a1565b60008060009054906101000a900473ffffffffffffffffffffffffffffffffffffffff1673ffffffffffffffffffffffffffffffffffffffff163373ffffffffffffffffffffffffffffffffffffffff16141515610a0557600080fd5b600360009054906101000a900473ffffffffffffffffffffffffffffffffffffffff1673ffffffffffffffffffffffffffffffffffffffff16635c975abb6000604051602001526040518163ffffffff167c0100000000000000000000000000000000000000000000000000000000028152600401602060405180830381600087803b1515610a9357600080fd5b6102c65a03f11515610aa457600080fd5b505050604051805190501515610ab957600080fd5b600360009054906101000a900473ffffffffffffffffffffffffffffffffffffffff1673ffffffffffffffffffffffffffffffffffffffff16633f4ba83a6040518163ffffffff167c0100000000000000000000000000000000000000000000000000000000028152600401600060405180830381600087803b1515610b3e57600080fd5b6102c65a03f11515610b4f57600080fd5b5050506001905090565b600060149054906101000a900460ff1681565b6000809054906101000a900473ffffffffffffffffffffffffffffffffffffffff1673ffffffffffffffffffffffffffffffffffffffff163373ffffffffffffffffffffffffffffffffffffffff16141515610bc757600080fd5b600960009054906101000a900460ff16151515610be357600080fd5b600454600554101515610bf557600080fd5b6008544211151515610c0657600080fd5b600081111515610c1557600080fd5b8060078190555050565b600260009054906101000a900473ffffffffffffffffffffffffffffffffffffffff1681565b600960009054906101000a900460ff1681565b6000809054906101000a900473ffffffffffffffffffffffffffffffffffffffff1673ffffffffffffffffffffffffffffffffffffffff163373ffffffffffffffffffffffffffffffffffffffff16141515610cb357600080fd5b600060149054906101000a900460ff16151515610ccf57600080fd5b6001600060146101000a81548160ff0219169083151502179055507f6985a02210a168e66602d3235cb6db0e70f92b3ba4d376a33c0f3d9434bff62560405160405180910390a1565b6000809054906101000a900473ffffffffffffffffffffffffffffffffffffffff1681565b6000809054906101000a900473ffffffffffffffffffffffffffffffffffffffff1673ffffffffffffffffffffffffffffffffffffffff163373ffffffffffffffffffffffffffffffffffffffff16141515610d9857600080fd5b600960009054906101000a900460ff16151515610db457600080fd5b600454600554101515610dc657600080fd5b6008544211151515610dd757600080fd5b600081111515610de657600080fd5b610e01670de0b6b3a76400008261122890919063ffffffff16565b60068190555050565b6000809054906101000a900473ffffffffffffffffffffffffffffffffffffffff1673ffffffffffffffffffffffffffffffffffffffff163373ffffffffffffffffffffffffffffffffffffffff16141515610e6557600080fd5b600454600554101580610e79575060085442115b1515610e8457600080fd5b600960009054906101000a900460ff16151515610ea057600080fd5b6001600960006101000a81548160ff021916908315150217905550600360009054906101000a900473ffffffffffffffffffffffffffffffffffffffff1673ffffffffffffffffffffffffffffffffffffffff1663a9059cbb600260009054906101000a900473ffffffffffffffffffffffffffffffffffffffff16600360009054906101000a900473ffffffffffffffffffffffffffffffffffffffff1673ffffffffffffffffffffffffffffffffffffffff166370a08231306000604051602001526040518263ffffffff167c0100000000000000000000000000000000000000000000000000000000028152600401808273ffffffffffffffffffffffffffffffffffffffff1673ffffffffffffffffffffffffffffffffffffffff168152602001915050602060405180830381600087803b1515610fe157600080fd5b6102c65a03f11515610ff257600080fd5b505050604051805190506000604051602001526040518363ffffffff167c0100000000000000000000000000000000000000000000000000000000028152600401808373ffffffffffffffffffffffffffffffffffffffff1673ffffffffffffffffffffffffffffffffffffffff16815260200182815260200192505050602060405180830381600087803b151561108957600080fd5b6102c65a03f1151561109a57600080fd5b5050506040518051905050565b60055481565b6000809054906101000a900473ffffffffffffffffffffffffffffffffffffffff1673ffffffffffffffffffffffffffffffffffffffff163373ffffffffffffffffffffffffffffffffffffffff1614151561110857600080fd5b600073ffffffffffffffffffffffffffffffffffffffff168173ffffffffffffffffffffffffffffffffffffffff161415151561114457600080fd5b8073ffffffffffffffffffffffffffffffffffffffff166000809054906101000a900473ffffffffffffffffffffffffffffffffffffffff1673ffffffffffffffffffffffffffffffffffffffff167f8be0079c531659141344cd1fd0a4f28419497f9722a3daafe3b4186f6b6457e060405160405180910390a3806000806101000a81548173ffffffffffffffffffffffffffffffffffffffff021916908373ffffffffffffffffffffffffffffffffffffffff16021790555050565b600360009054906101000a900473ffffffffffffffffffffffffffffffffffffffff1681565b600080600084141561123d576000915061125c565b828402905082848281151561124e57fe5b0414151561125857fe5b8091505b5092915050565b600082821115151561127157fe5b818303905092915050565b600080828481151561128a57fe5b0490508091505092915050565b60008082840190508381101515156112ab57fe5b80915050929150505600a165627a7a72305820d1c21b7c943a3e1b34b75ff3fbf81a1b09e19b17d889a20fdede8f875b9dbac20029",
  "source": "pragma solidity ^0.4.11;\n\nimport 'zeppelin-solidity/contracts/math/SafeMath.sol';\nimport 'zeppelin-solidity/contracts/lifecycle/Pausable.sol';\nimport './HoQuToken.sol';\n\n/**\n * @title BaseCrowdSale\n * @title HoQu.io base crowdsale contract for managing a token crowdsale.\n */\ncontract BaseCrowdsale is Pausable {\n    using SafeMath for uint256;\n\n    // all accepted ethers go to this address\n    address beneficiaryAddress;\n\n    // all remain tokens after ICO should go to that address\n    address public bankAddress;\n\n    // token instance\n    HoQuToken public token;\n\n    uint256 public maxTokensAmount;\n    uint256 public issuedTokensAmount = 0;\n    uint256 public minBuyableAmount;\n    uint256 public tokenRate; // amount of HQX per 1 ETH\n    \n    uint256 endDate;\n\n    bool public isFinished = false;\n\n    /**\n    * Event for token purchase logging\n    * @param buyer who paid for the tokens\n    * @param tokens amount of tokens purchased\n    * @param amount ethers paid for purchase\n    */\n    event TokenBought(address indexed buyer, uint256 tokens, uint256 amount);\n\n    modifier inProgress() {\n        require (!isFinished);\n        require (issuedTokensAmount < maxTokensAmount);\n        require (now <= endDate);\n        _;\n    }\n    \n    /**\n    * @param _tokenAddress address of a HQX token contract\n    * @param _bankAddress address for remain HQX tokens accumulation\n    * @param _beneficiaryAddress accepted ETH go to this address\n    * @param _tokenRate rate HQX per 1 ETH\n    * @param _minBuyableAmount min ETH per each buy action (in ETH)\n    * @param _maxTokensAmount ICO HQX capacity (in HQX)\n    * @param _endDate the date when ICO will expire\n    */\n    function BaseCrowdsale(\n        address _tokenAddress,\n        address _bankAddress,\n        address _beneficiaryAddress,\n        uint256 _tokenRate,\n        uint256 _minBuyableAmount,\n        uint256 _maxTokensAmount,\n        uint256 _endDate\n    ) {\n        token = HoQuToken(_tokenAddress);\n\n        bankAddress = _bankAddress;\n        beneficiaryAddress = _beneficiaryAddress;\n\n        tokenRate = _tokenRate;\n        minBuyableAmount = _minBuyableAmount.mul(1 ether);\n        maxTokensAmount = _maxTokensAmount.mul(1 ether);\n    \n        endDate = _endDate;\n    }\n\n    /*\n     * @dev Set new HoQu token exchange rate.\n     */\n    function setTokenRate(uint256 _tokenRate) onlyOwner inProgress {\n        require (_tokenRate > 0);\n        tokenRate = _tokenRate;\n    }\n\n    /*\n     * @dev Set new minimum buyable amount in ethers.\n     */\n    function setMinBuyableAmount(uint256 _minBuyableAmount) onlyOwner inProgress {\n        require (_minBuyableAmount > 0);\n        minBuyableAmount = _minBuyableAmount.mul(1 ether);\n    }\n\n    /**\n     * Buy HQX. Check minBuyableAmount and tokenRate.\n     * @dev Performs actual token sale process. Sends all ethers to beneficiary.\n     */\n    function buyTokens() payable inProgress whenNotPaused {\n        require (msg.value >= minBuyableAmount);\n    \n        uint256 payAmount = msg.value;\n        uint256 returnAmount = 0;\n\n        // calculate token amount to be transfered to investor\n        uint256 tokens = tokenRate.mul(payAmount);\n    \n        if (issuedTokensAmount + tokens > maxTokensAmount) {\n            tokens = maxTokensAmount.sub(issuedTokensAmount);\n            payAmount = tokens.div(tokenRate);\n            returnAmount = msg.value.sub(payAmount);\n        }\n    \n        issuedTokensAmount = issuedTokensAmount.add(tokens);\n        require (issuedTokensAmount <= maxTokensAmount);\n\n        // send token to investor\n        token.transfer(msg.sender, tokens);\n        // notify listeners on token purchase\n        TokenBought(msg.sender, tokens, payAmount);\n\n        // send ethers to special address\n        beneficiaryAddress.transfer(payAmount);\n    \n        if (returnAmount > 0) {\n            msg.sender.transfer(returnAmount);\n        }\n    }\n\n    /**\n     * Trigger emergency token pause.\n     */\n    function pauseToken() onlyOwner returns (bool) {\n        require(!token.paused());\n        token.pause();\n        return true;\n    }\n\n    /**\n     * Unpause token.\n     */\n    function unpauseToken() onlyOwner returns (bool) {\n        require(token.paused());\n        token.unpause();\n        return true;\n    }\n    \n    /**\n     * Finish ICO.\n     */\n    function finish() onlyOwner {\n        require (issuedTokensAmount >= maxTokensAmount || now > endDate);\n        require (!isFinished);\n        isFinished = true;\n        token.transfer(bankAddress, token.balanceOf(this));\n    }\n    \n    /**\n     * Buy HQX. Check minBuyableAmount and tokenRate.\n     */\n    function() external payable {\n        buyTokens();\n    }\n}",
  "sourcePath": "/Users/slash686/Projects/hoqu-sale-github/contracts/BaseCrowdsale.sol",
  "compiler": {
    "name": "solc",
    "version": "0.4.18+commit.9cf6e910.Emscripten.clang"
  },
  "schemaVersion": "1.0.1",
  "updatedAt": "2017-12-05T07:53:53.918Z"
}