{
  "contractName": "ChangeableRateCrowdsale",
  "abi": [
    {
      "constant": false,
      "inputs": [
        {
          "name": "_receiver",
          "type": "address"
        }
      ],
      "name": "claimOne",
      "outputs": [],
      "payable": false,
      "stateMutability": "nonpayable",
      "type": "function"
    },
    {
      "constant": true,
      "inputs": [],
      "name": "maxTokensAmount",
      "outputs": [
        {
          "name": "",
          "type": "uint256"
        }
      ],
      "payable": false,
      "stateMutability": "view",
      "type": "function"
    },
    {
      "constant": true,
      "inputs": [],
      "name": "minBuyableAmount",
      "outputs": [
        {
          "name": "",
          "type": "uint256"
        }
      ],
      "payable": false,
      "stateMutability": "view",
      "type": "function"
    },
    {
      "constant": false,
      "inputs": [
        {
          "name": "_receiver",
          "type": "address"
        },
        {
          "name": "_equivalentEthAmount",
          "type": "uint256"
        }
      ],
      "name": "sub",
      "outputs": [],
      "payable": false,
      "stateMutability": "nonpayable",
      "type": "function"
    },
    {
      "constant": true,
      "inputs": [],
      "name": "tokenRate",
      "outputs": [
        {
          "name": "",
          "type": "uint256"
        }
      ],
      "payable": false,
      "stateMutability": "view",
      "type": "function"
    },
    {
      "constant": true,
      "inputs": [
        {
          "name": "i",
          "type": "uint32"
        }
      ],
      "name": "getReceiver",
      "outputs": [
        {
          "name": "",
          "type": "address"
        }
      ],
      "payable": false,
      "stateMutability": "view",
      "type": "function"
    },
    {
      "constant": false,
      "inputs": [],
      "name": "unpause",
      "outputs": [],
      "payable": false,
      "stateMutability": "nonpayable",
      "type": "function"
    },
    {
      "constant": true,
      "inputs": [
        {
          "name": "",
          "type": "uint256"
        }
      ],
      "name": "rateBoundaries",
      "outputs": [
        {
          "name": "amount",
          "type": "uint256"
        },
        {
          "name": "rate",
          "type": "uint256"
        }
      ],
      "payable": false,
      "stateMutability": "view",
      "type": "function"
    },
    {
      "constant": false,
      "inputs": [],
      "name": "claim",
      "outputs": [],
      "payable": false,
      "stateMutability": "nonpayable",
      "type": "function"
    },
    {
      "constant": true,
      "inputs": [],
      "name": "paused",
      "outputs": [
        {
          "name": "",
          "type": "bool"
        }
      ],
      "payable": false,
      "stateMutability": "view",
      "type": "function"
    },
    {
      "constant": false,
      "inputs": [
        {
          "name": "_tokenRate",
          "type": "uint256"
        }
      ],
      "name": "setTokenRate",
      "outputs": [],
      "payable": false,
      "stateMutability": "nonpayable",
      "type": "function"
    },
    {
      "constant": true,
      "inputs": [],
      "name": "bankAddress",
      "outputs": [
        {
          "name": "",
          "type": "address"
        }
      ],
      "payable": false,
      "stateMutability": "view",
      "type": "function"
    },
    {
      "constant": true,
      "inputs": [],
      "name": "isFinished",
      "outputs": [
        {
          "name": "",
          "type": "bool"
        }
      ],
      "payable": false,
      "stateMutability": "view",
      "type": "function"
    },
    {
      "constant": false,
      "inputs": [],
      "name": "pause",
      "outputs": [],
      "payable": false,
      "stateMutability": "nonpayable",
      "type": "function"
    },
    {
      "constant": true,
      "inputs": [],
      "name": "owner",
      "outputs": [
        {
          "name": "",
          "type": "address"
        }
      ],
      "payable": false,
      "stateMutability": "view",
      "type": "function"
    },
    {
      "constant": true,
      "inputs": [],
      "name": "currentBoundary",
      "outputs": [
        {
          "name": "",
          "type": "uint256"
        }
      ],
      "payable": false,
      "stateMutability": "view",
      "type": "function"
    },
    {
      "constant": false,
      "inputs": [],
      "name": "buy",
      "outputs": [],
      "payable": true,
      "stateMutability": "payable",
      "type": "function"
    },
    {
      "constant": true,
      "inputs": [],
      "name": "getReceiversCount",
      "outputs": [
        {
          "name": "",
          "type": "uint32"
        }
      ],
      "payable": false,
      "stateMutability": "view",
      "type": "function"
    },
    {
      "constant": false,
      "inputs": [],
      "name": "claimAll",
      "outputs": [],
      "payable": false,
      "stateMutability": "nonpayable",
      "type": "function"
    },
    {
      "constant": true,
      "inputs": [],
      "name": "numOfBoundaries",
      "outputs": [
        {
          "name": "",
          "type": "uint256"
        }
      ],
      "payable": false,
      "stateMutability": "view",
      "type": "function"
    },
    {
      "constant": false,
      "inputs": [],
      "name": "finish",
      "outputs": [],
      "payable": false,
      "stateMutability": "nonpayable",
      "type": "function"
    },
    {
      "constant": false,
      "inputs": [
        {
          "name": "_receiver",
          "type": "address"
        },
        {
          "name": "_equivalentEthAmount",
          "type": "uint256"
        }
      ],
      "name": "topUp",
      "outputs": [],
      "payable": false,
      "stateMutability": "nonpayable",
      "type": "function"
    },
    {
      "constant": true,
      "inputs": [
        {
          "name": "",
          "type": "address"
        }
      ],
      "name": "approved",
      "outputs": [
        {
          "name": "",
          "type": "bool"
        }
      ],
      "payable": false,
      "stateMutability": "view",
      "type": "function"
    },
    {
      "constant": false,
      "inputs": [
        {
          "name": "_receiver",
          "type": "address"
        }
      ],
      "name": "approve",
      "outputs": [],
      "payable": false,
      "stateMutability": "nonpayable",
      "type": "function"
    },
    {
      "constant": true,
      "inputs": [
        {
          "name": "",
          "type": "address"
        }
      ],
      "name": "tokens",
      "outputs": [
        {
          "name": "",
          "type": "uint256"
        }
      ],
      "payable": false,
      "stateMutability": "view",
      "type": "function"
    },
    {
      "constant": true,
      "inputs": [],
      "name": "issuedTokensAmount",
      "outputs": [
        {
          "name": "",
          "type": "uint256"
        }
      ],
      "payable": false,
      "stateMutability": "view",
      "type": "function"
    },
    {
      "constant": true,
      "inputs": [],
      "name": "nextBoundaryAmount",
      "outputs": [
        {
          "name": "",
          "type": "uint256"
        }
      ],
      "payable": false,
      "stateMutability": "view",
      "type": "function"
    },
    {
      "constant": false,
      "inputs": [
        {
          "name": "newOwner",
          "type": "address"
        }
      ],
      "name": "transferOwnership",
      "outputs": [],
      "payable": false,
      "stateMutability": "nonpayable",
      "type": "function"
    },
    {
      "constant": false,
      "inputs": [
        {
          "name": "_receiver",
          "type": "address"
        },
        {
          "name": "_equivalentEthAmount",
          "type": "uint256"
        }
      ],
      "name": "add",
      "outputs": [],
      "payable": false,
      "stateMutability": "nonpayable",
      "type": "function"
    },
    {
      "constant": true,
      "inputs": [],
      "name": "token",
      "outputs": [
        {
          "name": "",
          "type": "address"
        }
      ],
      "payable": false,
      "stateMutability": "view",
      "type": "function"
    },
    {
      "inputs": [
        {
          "name": "_tokenAddress",
          "type": "address"
        },
        {
          "name": "_bankAddress",
          "type": "address"
        },
        {
          "name": "_beneficiaryAddress",
          "type": "address"
        },
        {
          "name": "_tokenRate",
          "type": "uint256"
        },
        {
          "name": "_minBuyableAmount",
          "type": "uint256"
        },
        {
          "name": "_maxTokensAmount",
          "type": "uint256"
        },
        {
          "name": "_endDate",
          "type": "uint256"
        }
      ],
      "payable": false,
      "stateMutability": "nonpayable",
      "type": "constructor"
    },
    {
      "payable": true,
      "stateMutability": "payable",
      "type": "fallback"
    },
    {
      "anonymous": false,
      "inputs": [
        {
          "indexed": true,
          "name": "_buyer",
          "type": "address"
        },
        {
          "indexed": false,
          "name": "_tokens",
          "type": "uint256"
        },
        {
          "indexed": false,
          "name": "_amount",
          "type": "uint256"
        }
      ],
      "name": "TokenBought",
      "type": "event"
    },
    {
      "anonymous": false,
      "inputs": [
        {
          "indexed": true,
          "name": "_receiver",
          "type": "address"
        },
        {
          "indexed": false,
          "name": "_tokens",
          "type": "uint256"
        },
        {
          "indexed": false,
          "name": "_equivalentAmount",
          "type": "uint256"
        }
      ],
      "name": "TokenAdded",
      "type": "event"
    },
    {
      "anonymous": false,
      "inputs": [
        {
          "indexed": true,
          "name": "_receiver",
          "type": "address"
        },
        {
          "indexed": false,
          "name": "_tokens",
          "type": "uint256"
        },
        {
          "indexed": false,
          "name": "_equivalentAmount",
          "type": "uint256"
        }
      ],
      "name": "TokenToppedUp",
      "type": "event"
    },
    {
      "anonymous": false,
      "inputs": [
        {
          "indexed": true,
          "name": "_receiver",
          "type": "address"
        },
        {
          "indexed": false,
          "name": "_tokens",
          "type": "uint256"
        },
        {
          "indexed": false,
          "name": "_equivalentAmount",
          "type": "uint256"
        }
      ],
      "name": "TokenSubtracted",
      "type": "event"
    },
    {
      "anonymous": false,
      "inputs": [
        {
          "indexed": true,
          "name": "_receiver",
          "type": "address"
        },
        {
          "indexed": false,
          "name": "_tokens",
          "type": "uint256"
        }
      ],
      "name": "TokenSent",
      "type": "event"
    },
    {
      "anonymous": false,
      "inputs": [],
      "name": "Pause",
      "type": "event"
    },
    {
      "anonymous": false,
      "inputs": [],
      "name": "Unpause",
      "type": "event"
    },
    {
      "anonymous": false,
      "inputs": [
        {
          "indexed": true,
          "name": "previousOwner",
          "type": "address"
        },
        {
          "indexed": true,
          "name": "newOwner",
          "type": "address"
        }
      ],
      "name": "OwnershipTransferred",
      "type": "event"
    }
  ],
  "bytecode": "0x606060405260008060146101000a81548160ff02191690831515021790555060006005556000600960006101000a81548160ff0219169083151502179055506000600f556000601055341561005357600080fd5b60405160e0806124978339810160405280805190602001909190805190602001909190805190602001909190805190602001909190805190602001909190805190602001909190805190602001909190505086868686868686336000806101000a81548173ffffffffffffffffffffffffffffffffffffffff021916908373ffffffffffffffffffffffffffffffffffffffff16021790555086600360006101000a81548173ffffffffffffffffffffffffffffffffffffffff021916908373ffffffffffffffffffffffffffffffffffffffff16021790555085600260006101000a81548173ffffffffffffffffffffffffffffffffffffffff021916908373ffffffffffffffffffffffffffffffffffffffff16021790555084600160006101000a81548173ffffffffffffffffffffffffffffffffffffffff021916908373ffffffffffffffffffffffffffffffffffffffff160217905550836007819055508260068190555081600481905550806008819055505050505050505060408051908101604052806a0b658e154215c96f1000008152602001611770815250600e600060106000815480929190600101919050558152602001908152602001600020600082015181600001556020820151816001015590505060408051908101604052806a16cb1c2a842b92de2000008152602001611676815250600e600060106000815480929190600101919050558152602001908152602001600020600082015181600001556020820151816001015590505060408051908101604052806a2230aa3fc6415c4d3000008152602001611612815250600e600060106000815480929190600101919050558152602001908152602001600020600082015181600001556020820151816001015590505060408051908101604052806a2d963855085725bc40000081526020016115ae815250600e600060106000815480929190600101919050558152602001908152602001600020600082015181600001556020820151816001015590505060408051908101604052806a38fbc66a4a6cef2b500000815260200161154a815250600e600060106000815480929190600101919050558152602001908152602001600020600082015181600001556020820151816001015590505060408051908101604052806a4461547f8c82b89a60000081526020016114e6815250600e600060106000815480929190600101919050558152602001908152602001600020600082015181600001556020820151816001015590505060408051908101604052806a4fc6e294ce9882097000008152602001611482815250600e600060106000815480929190600101919050558152602001908152602001600020600082015181600001556020820151816001015590505060408051908101604052806a5b2c70aa10ae4b78800000815260200161141e815250600e600060106000815480929190600101919050558152602001908152602001600020600082015181600001556020820151816001015590505060408051908101604052806a71f78cd494d9de56a000008152602001611388815250600e6000601060008154809291906001019190505581526020019081526020016000206000820151816000015560208201518160010155905050600e6000600f5481526020019081526020016000206000015460118190555050505050505050611f54806105436000396000f300606060405260043610610180576000357c0100000000000000000000000000000000000000000000000000000000900463ffffffff1680630262dc131461018a5780630a384665146101c35780632511b182146101ec57806326ffee081461021557806331711884146102575780633c78fe07146102805780633f4ba83a146102e95780634a751072146102fe5780634e71d92d1461033c5780635c975abb1461035157806361241c281461037e5780637822ed49146103a15780637b352962146103f65780638456cb59146104235780638da5cb5b14610438578063a4bd7a201461048d578063a6f2ae3a146104b6578063a72a05f7146104c0578063d1058e59146104f5578063d4f114a61461050a578063d56b288914610533578063d6f7ddf914610548578063d8b964e61461058a578063daea85c5146105db578063e486033914610614578063e69b414b14610661578063f07255e31461068a578063f2fde38b146106b3578063f5d82b6b146106ec578063fc0c546a1461072e575b610188610783565b005b341561019557600080fd5b6101c1600480803573ffffffffffffffffffffffffffffffffffffffff16906020019091905050610994565b005b34156101ce57600080fd5b6101d6610a17565b6040518082815260200191505060405180910390f35b34156101f757600080fd5b6101ff610a1d565b6040518082815260200191505060405180910390f35b341561022057600080fd5b610255600480803573ffffffffffffffffffffffffffffffffffffffff16906020019091908035906020019091905050610a23565b005b341561026257600080fd5b61026a610c0c565b6040518082815260200191505060405180910390f35b341561028b57600080fd5b6102a7600480803563ffffffff16906020019091905050610c12565b604051808273ffffffffffffffffffffffffffffffffffffffff1673ffffffffffffffffffffffffffffffffffffffff16815260200191505060405180910390f35b34156102f457600080fd5b6102fc610cb6565b005b341561030957600080fd5b61031f6004808035906020019091905050610d74565b604051808381526020018281526020019250505060405180910390f35b341561034757600080fd5b61034f610d98565b005b341561035c57600080fd5b610364610dbf565b604051808215151515815260200191505060405180910390f35b341561038957600080fd5b61039f6004808035906020019091905050610dd2565b005b34156103ac57600080fd5b6103b4610e46565b604051808273ffffffffffffffffffffffffffffffffffffffff1673ffffffffffffffffffffffffffffffffffffffff16815260200191505060405180910390f35b341561040157600080fd5b610409610e6c565b604051808215151515815260200191505060405180910390f35b341561042e57600080fd5b610436610e7f565b005b341561044357600080fd5b61044b610f3f565b604051808273ffffffffffffffffffffffffffffffffffffffff1673ffffffffffffffffffffffffffffffffffffffff16815260200191505060405180910390f35b341561049857600080fd5b6104a0610f64565b6040518082815260200191505060405180910390f35b6104be610783565b005b34156104cb57600080fd5b6104d3610f6a565b604051808263ffffffff1663ffffffff16815260200191505060405180910390f35b341561050057600080fd5b610508610fdf565b005b341561051557600080fd5b61051d61117e565b6040518082815260200191505060405180910390f35b341561053e57600080fd5b610546611184565b005b341561055357600080fd5b610588600480803573ffffffffffffffffffffffffffffffffffffffff16906020019091908035906020019091905050611421565b005b341561059557600080fd5b6105c1600480803573ffffffffffffffffffffffffffffffffffffffff16906020019091905050611531565b604051808215151515815260200191505060405180910390f35b34156105e657600080fd5b610612600480803573ffffffffffffffffffffffffffffffffffffffff16906020019091905050611551565b005b341561061f57600080fd5b61064b600480803573ffffffffffffffffffffffffffffffffffffffff16906020019091905050611623565b6040518082815260200191505060405180910390f35b341561066c57600080fd5b61067461163b565b6040518082815260200191505060405180910390f35b341561069557600080fd5b61069d611641565b6040518082815260200191505060405180910390f35b34156106be57600080fd5b6106ea600480803573ffffffffffffffffffffffffffffffffffffffff16906020019091905050611647565b005b34156106f757600080fd5b61072c600480803573ffffffffffffffffffffffffffffffffffffffff1690602001909190803590602001909190505061179c565b005b341561073957600080fd5b6107416118eb565b604051808273ffffffffffffffffffffffffffffffffffffffff1673ffffffffffffffffffffffffffffffffffffffff16815260200191505060405180910390f35b6000806000600960009054906101000a900460ff161515156107a457600080fd5b6004546005541015156107b657600080fd5b60085442111515156107c757600080fd5b600060149054906101000a900460ff161515156107e357600080fd5b349250600091506107ff8360075461191190919063ffffffff16565b9050600454816005540111156108555761082660055460045461194c90919063ffffffff16565b905061083d6007548261196590919063ffffffff16565b9250610852833461194c90919063ffffffff16565b91505b61086a8160055461198090919063ffffffff16565b6005819055506004546005541115151561088357600080fd5b61088d338261199e565b3373ffffffffffffffffffffffffffffffffffffffff167f28cab0d660ed8aedd61a8c9db00b97f6a2d67e07d87795994f440b18bc5f1aa38285604051808381526020018281526020019250505060405180910390a2600160009054906101000a900473ffffffffffffffffffffffffffffffffffffffff1673ffffffffffffffffffffffffffffffffffffffff166108fc849081150290604051600060405180830381858888f19350505050151561094557600080fd5b600082111561098f573373ffffffffffffffffffffffffffffffffffffffff166108fc839081150290604051600060405180830381858888f19350505050151561098e57600080fd5b5b505050565b6000809054906101000a900473ffffffffffffffffffffffffffffffffffffffff1673ffffffffffffffffffffffffffffffffffffffff163373ffffffffffffffffffffffffffffffffffffffff161415156109ef57600080fd5b600060149054906101000a900460ff16151515610a0b57600080fd5b610a14816119d0565b50565b60045481565b60065481565b60008060009054906101000a900473ffffffffffffffffffffffffffffffffffffffff1673ffffffffffffffffffffffffffffffffffffffff163373ffffffffffffffffffffffffffffffffffffffff16141515610a8057600080fd5b600060149054906101000a900460ff16151515610a9c57600080fd5b610ab18260075461191190919063ffffffff16565b905080600a60008573ffffffffffffffffffffffffffffffffffffffff1673ffffffffffffffffffffffffffffffffffffffff1681526020019081526020016000205410151515610b0157600080fd5b610b5381600a60008673ffffffffffffffffffffffffffffffffffffffff1673ffffffffffffffffffffffffffffffffffffffff1681526020019081526020016000205461194c90919063ffffffff16565b600a60008573ffffffffffffffffffffffffffffffffffffffff1673ffffffffffffffffffffffffffffffffffffffff16815260200190815260200160002081905550610bab8160055461194c90919063ffffffff16565b6005819055508273ffffffffffffffffffffffffffffffffffffffff167f2da8b2becb27b189a54d21689aa110c877379a94c6f59f115cedc91d66239b338284604051808381526020018281526020019250505060405180910390a2505050565b60075481565b60008060009054906101000a900473ffffffffffffffffffffffffffffffffffffffff1673ffffffffffffffffffffffffffffffffffffffff163373ffffffffffffffffffffffffffffffffffffffff16141515610c6f57600080fd5b600c60008363ffffffff1663ffffffff16815260200190815260200160002060009054906101000a900473ffffffffffffffffffffffffffffffffffffffff169050919050565b6000809054906101000a900473ffffffffffffffffffffffffffffffffffffffff1673ffffffffffffffffffffffffffffffffffffffff163373ffffffffffffffffffffffffffffffffffffffff16141515610d1157600080fd5b600060149054906101000a900460ff161515610d2c57600080fd5b60008060146101000a81548160ff0219169083151502179055507f7805862f689e2f13df9f062ff482ad3ad112aca9e0847911ed832e158c525b3360405160405180910390a1565b600e6020528060005260406000206000915090508060000154908060010154905082565b600060149054906101000a900460ff16151515610db457600080fd5b610dbd336119d0565b565b600060149054906101000a900460ff1681565b6000809054906101000a900473ffffffffffffffffffffffffffffffffffffffff1673ffffffffffffffffffffffffffffffffffffffff163373ffffffffffffffffffffffffffffffffffffffff16141515610e2d57600080fd5b600081111515610e3c57600080fd5b8060078190555050565b600260009054906101000a900473ffffffffffffffffffffffffffffffffffffffff1681565b600960009054906101000a900460ff1681565b6000809054906101000a900473ffffffffffffffffffffffffffffffffffffffff1673ffffffffffffffffffffffffffffffffffffffff163373ffffffffffffffffffffffffffffffffffffffff16141515610eda57600080fd5b600060149054906101000a900460ff16151515610ef657600080fd5b6001600060146101000a81548160ff0219169083151502179055507f6985a02210a168e66602d3235cb6db0e70f92b3ba4d376a33c0f3d9434bff62560405160405180910390a1565b6000809054906101000a900473ffffffffffffffffffffffffffffffffffffffff1681565b600f5481565b60008060009054906101000a900473ffffffffffffffffffffffffffffffffffffffff1673ffffffffffffffffffffffffffffffffffffffff163373ffffffffffffffffffffffffffffffffffffffff16141515610fc757600080fd5b600d60009054906101000a900463ffffffff16905090565b6000806000809054906101000a900473ffffffffffffffffffffffffffffffffffffffff1673ffffffffffffffffffffffffffffffffffffffff163373ffffffffffffffffffffffffffffffffffffffff1614151561103d57600080fd5b600060149054906101000a900460ff1615151561105957600080fd5b600091505b600d60009054906101000a900463ffffffff1663ffffffff168263ffffffff16101561117a57600c60008363ffffffff1663ffffffff16815260200190815260200160002060009054906101000a900473ffffffffffffffffffffffffffffffffffffffff169050600b60008273ffffffffffffffffffffffffffffffffffffffff1673ffffffffffffffffffffffffffffffffffffffff16815260200190815260200160002060009054906101000a900460ff16801561115e57506000600a60008373ffffffffffffffffffffffffffffffffffffffff1673ffffffffffffffffffffffffffffffffffffffff16815260200190815260200160002054115b1561116d5761116c816119d0565b5b818060010192505061105e565b5050565b60105481565b6000809054906101000a900473ffffffffffffffffffffffffffffffffffffffff1673ffffffffffffffffffffffffffffffffffffffff163373ffffffffffffffffffffffffffffffffffffffff161415156111df57600080fd5b6004546005541015806111f3575060085442115b15156111fe57600080fd5b600960009054906101000a900460ff1615151561121a57600080fd5b6001600960006101000a81548160ff021916908315150217905550600360009054906101000a900473ffffffffffffffffffffffffffffffffffffffff1673ffffffffffffffffffffffffffffffffffffffff1663a9059cbb600260009054906101000a900473ffffffffffffffffffffffffffffffffffffffff16600360009054906101000a900473ffffffffffffffffffffffffffffffffffffffff1673ffffffffffffffffffffffffffffffffffffffff166370a08231306000604051602001526040518263ffffffff167c0100000000000000000000000000000000000000000000000000000000028152600401808273ffffffffffffffffffffffffffffffffffffffff1673ffffffffffffffffffffffffffffffffffffffff168152602001915050602060405180830381600087803b151561135b57600080fd5b6102c65a03f1151561136c57600080fd5b505050604051805190506000604051602001526040518363ffffffff167c0100000000000000000000000000000000000000000000000000000000028152600401808373ffffffffffffffffffffffffffffffffffffffff1673ffffffffffffffffffffffffffffffffffffffff16815260200182815260200192505050602060405180830381600087803b151561140357600080fd5b6102c65a03f1151561141457600080fd5b5050506040518051905050565b60008060009054906101000a900473ffffffffffffffffffffffffffffffffffffffff1673ffffffffffffffffffffffffffffffffffffffff163373ffffffffffffffffffffffffffffffffffffffff1614151561147e57600080fd5b600060149054906101000a900460ff1615151561149a57600080fd5b6114af8260075461191190919063ffffffff16565b90506114c68160055461198090919063ffffffff16565b6005819055506114d6838261199e565b8273ffffffffffffffffffffffffffffffffffffffff167ff10143e1b37ebaf3698e98976d8bddabcea045adc939c03b245da18e81ea96518284604051808381526020018281526020019250505060405180910390a2505050565b600b6020528060005260406000206000915054906101000a900460ff1681565b6000809054906101000a900473ffffffffffffffffffffffffffffffffffffffff1673ffffffffffffffffffffffffffffffffffffffff163373ffffffffffffffffffffffffffffffffffffffff161415156115ac57600080fd5b600060149054906101000a900460ff161515156115c857600080fd5b6001600b60008373ffffffffffffffffffffffffffffffffffffffff1673ffffffffffffffffffffffffffffffffffffffff16815260200190815260200160002060006101000a81548160ff02191690831515021790555050565b600a6020528060005260406000206000915090505481565b60055481565b60115481565b6000809054906101000a900473ffffffffffffffffffffffffffffffffffffffff1673ffffffffffffffffffffffffffffffffffffffff163373ffffffffffffffffffffffffffffffffffffffff161415156116a257600080fd5b600073ffffffffffffffffffffffffffffffffffffffff168173ffffffffffffffffffffffffffffffffffffffff16141515156116de57600080fd5b8073ffffffffffffffffffffffffffffffffffffffff166000809054906101000a900473ffffffffffffffffffffffffffffffffffffffff1673ffffffffffffffffffffffffffffffffffffffff167f8be0079c531659141344cd1fd0a4f28419497f9722a3daafe3b4186f6b6457e060405160405180910390a3806000806101000a81548173ffffffffffffffffffffffffffffffffffffffff021916908373ffffffffffffffffffffffffffffffffffffffff16021790555050565b60008060009054906101000a900473ffffffffffffffffffffffffffffffffffffffff1673ffffffffffffffffffffffffffffffffffffffff163373ffffffffffffffffffffffffffffffffffffffff161415156117f957600080fd5b600960009054906101000a900460ff1615151561181557600080fd5b60045460055410151561182757600080fd5b600854421115151561183857600080fd5b600060149054906101000a900460ff1615151561185457600080fd5b6118698260075461191190919063ffffffff16565b90506118808160055461198090919063ffffffff16565b600581905550611890838261199e565b8273ffffffffffffffffffffffffffffffffffffffff167fa818a22273fc309f0a3682b642c74c5b5c25c0615ff378d07767cd231e19fffc8284604051808381526020018281526020019250505060405180910390a2505050565b600360009054906101000a900473ffffffffffffffffffffffffffffffffffffffff1681565b60008060008414156119265760009150611945565b828402905082848281151561193757fe5b0414151561194157fe5b8091505b5092915050565b600082821115151561195a57fe5b818303905092915050565b600080828481151561197357fe5b0490508091505092915050565b600080828401905083811015151561199457fe5b8091505092915050565b600060149054906101000a900460ff161515156119ba57600080fd5b6119c48282611cab565b6119cc611eac565b5050565b60008060149054906101000a900460ff161515156119ed57600080fd5b600b60008373ffffffffffffffffffffffffffffffffffffffff1673ffffffffffffffffffffffffffffffffffffffff16815260200190815260200160002060009054906101000a900460ff161515611a4557600080fd5b6000600a60008473ffffffffffffffffffffffffffffffffffffffff1673ffffffffffffffffffffffffffffffffffffffff16815260200190815260200160002054111515611a9357600080fd5b600a60008373ffffffffffffffffffffffffffffffffffffffff1673ffffffffffffffffffffffffffffffffffffffff1681526020019081526020016000205490506000600a60008473ffffffffffffffffffffffffffffffffffffffff1673ffffffffffffffffffffffffffffffffffffffff16815260200190815260200160002081905550600360009054906101000a900473ffffffffffffffffffffffffffffffffffffffff1673ffffffffffffffffffffffffffffffffffffffff166323b872dd600260009054906101000a900473ffffffffffffffffffffffffffffffffffffffff1684846000604051602001526040518463ffffffff167c0100000000000000000000000000000000000000000000000000000000028152600401808473ffffffffffffffffffffffffffffffffffffffff1673ffffffffffffffffffffffffffffffffffffffff1681526020018373ffffffffffffffffffffffffffffffffffffffff1673ffffffffffffffffffffffffffffffffffffffff1681526020018281526020019350505050602060405180830381600087803b1515611c3d57600080fd5b6102c65a03f11515611c4e57600080fd5b50505060405180519050508173ffffffffffffffffffffffffffffffffffffffff167fd4ff88d569a7ad2bfd6b17da9dbe82e2ccc016fd0051e08ff1ad1e6fe8fc9b55826040518082815260200191505060405180910390a25050565b600060149054906101000a900460ff16151515611cc757600080fd5b6000600a60008473ffffffffffffffffffffffffffffffffffffffff1673ffffffffffffffffffffffffffffffffffffffff168152602001908152602001600020541415611e135781600c6000600d60009054906101000a900463ffffffff1663ffffffff1663ffffffff16815260200190815260200160002060006101000a81548173ffffffffffffffffffffffffffffffffffffffff021916908373ffffffffffffffffffffffffffffffffffffffff160217905550600d600081819054906101000a900463ffffffff168092919060010191906101000a81548163ffffffff021916908363ffffffff160217905550506000600b60008473ffffffffffffffffffffffffffffffffffffffff1673ffffffffffffffffffffffffffffffffffffffff16815260200190815260200160002060006101000a81548160ff0219169083151502179055505b611e6581600a60008573ffffffffffffffffffffffffffffffffffffffff1673ffffffffffffffffffffffffffffffffffffffff1681526020019081526020016000205461198090919063ffffffff16565b600a60008473ffffffffffffffffffffffffffffffffffffffff1673ffffffffffffffffffffffffffffffffffffffff168152602001908152602001600020819055505050565b601154600554101515611f2657600f60008154809291906001019190505550601054600f54101515611ee657600454601181905550611f25565b600e6000600f54815260200190815260200160002060000154601181905550600e6000600f548152602001908152602001600020600101546007819055505b5b5600a165627a7a72305820f6294d2b1f50ee85f9eaafaf4b6bd27a840496a2a6ac003d446f6e90da324d920029",
  "source": "pragma solidity ^0.4.11;\n\nimport './ClaimableCrowdsale.sol';\n\n/**\n * @title ChangeableRateCrowdsale\n * @dev HoQu.io Main Sale stage\n */\ncontract ChangeableRateCrowdsale is ClaimableCrowdsale {\n\n    struct RateBoundary {\n        uint256 amount;\n        uint256 rate;\n    }\n\n    mapping (uint => RateBoundary) public rateBoundaries;\n    uint public currentBoundary = 0;\n    uint public numOfBoundaries = 0;\n    uint256 public nextBoundaryAmount;\n\n    /**\n    * @param _tokenAddress address of a HQX token contract\n    * @param _bankAddress address for remain HQX tokens accumulation\n    * @param _beneficiaryAddress accepted ETH go to this address\n    * @param _tokenRate rate HQX per 1 ETH\n    * @param _minBuyableAmount min ETH per each buy action (in ETH wei)\n    * @param _maxTokensAmount ICO HQX capacity (in HQX wei)\n    * @param _endDate the date when ICO will expire\n    */\n    function ChangeableRateCrowdsale(\n        address _tokenAddress,\n        address _bankAddress,\n        address _beneficiaryAddress,\n        uint256 _tokenRate,\n        uint256 _minBuyableAmount,\n        uint256 _maxTokensAmount,\n        uint256 _endDate\n    ) ClaimableCrowdsale(\n        _tokenAddress,\n        _bankAddress,\n        _beneficiaryAddress,\n        _tokenRate,\n        _minBuyableAmount,\n        _maxTokensAmount,\n        _endDate\n    ) {\n        rateBoundaries[numOfBoundaries++] = RateBoundary({\n            amount : 13777764 ether,\n            rate : 6000\n        });\n        rateBoundaries[numOfBoundaries++] = RateBoundary({\n            amount : 27555528 ether,\n            rate : 5750\n        });\n        rateBoundaries[numOfBoundaries++] = RateBoundary({\n            amount : 41333292 ether,\n            rate : 5650\n        });\n        rateBoundaries[numOfBoundaries++] = RateBoundary({\n            amount : 55111056 ether,\n            rate : 5550\n        });\n        rateBoundaries[numOfBoundaries++] = RateBoundary({\n            amount : 68888820 ether,\n            rate : 5450\n        });\n        rateBoundaries[numOfBoundaries++] = RateBoundary({\n            amount : 82666584 ether,\n            rate : 5350\n        });\n        rateBoundaries[numOfBoundaries++] = RateBoundary({\n            amount : 96444348 ether,\n            rate : 5250\n        });\n        rateBoundaries[numOfBoundaries++] = RateBoundary({\n            amount : 110222112 ether,\n            rate : 5150\n        });\n        rateBoundaries[numOfBoundaries++] = RateBoundary({\n            amount : 137777640 ether,\n            rate : 5000\n        });\n        nextBoundaryAmount = rateBoundaries[currentBoundary].amount;\n    }\n\n    /**\n     * Internal method to change rate if boundary is hit\n     */\n    function touchRate() internal {\n        if (issuedTokensAmount >= nextBoundaryAmount) {\n            currentBoundary++;\n            if (currentBoundary >= numOfBoundaries) {\n                nextBoundaryAmount = maxTokensAmount;\n            }\n            else {\n                nextBoundaryAmount = rateBoundaries[currentBoundary].amount;\n                tokenRate = rateBoundaries[currentBoundary].rate;\n            }\n        }\n    }\n\n    /**\n     * Inherited internal method for storing tokens in contract until claim stage\n     */\n    function storeTokens(address _receiver, uint256 _tokensAmount) internal whenNotPaused {\n        ClaimableCrowdsale.storeTokens(_receiver, _tokensAmount);\n        touchRate();\n    }\n}",
  "sourcePath": "/Users/slash686/Projects/hoqu-sale-github/contracts/ChangeableRateCrowdsale.sol",
  "compiler": {
    "name": "solc",
    "version": "0.4.18+commit.9cf6e910.Emscripten.clang"
  },
  "schemaVersion": "1.0.1",
  "updatedAt": "2017-12-05T07:54:11.427Z"
}