{
  "contractName": "ClaimableCrowdsale",
  "abi": [
    {
      "constant": false,
      "inputs": [
        {
          "name": "_receiver",
          "type": "address"
        }
      ],
      "name": "claimOne",
      "outputs": [],
      "payable": false,
      "stateMutability": "nonpayable",
      "type": "function"
    },
    {
      "constant": true,
      "inputs": [],
      "name": "maxTokensAmount",
      "outputs": [
        {
          "name": "",
          "type": "uint256"
        }
      ],
      "payable": false,
      "stateMutability": "view",
      "type": "function"
    },
    {
      "constant": true,
      "inputs": [],
      "name": "minBuyableAmount",
      "outputs": [
        {
          "name": "",
          "type": "uint256"
        }
      ],
      "payable": false,
      "stateMutability": "view",
      "type": "function"
    },
    {
      "constant": false,
      "inputs": [
        {
          "name": "_receiver",
          "type": "address"
        },
        {
          "name": "_equivalentEthAmount",
          "type": "uint256"
        }
      ],
      "name": "sub",
      "outputs": [],
      "payable": false,
      "stateMutability": "nonpayable",
      "type": "function"
    },
    {
      "constant": true,
      "inputs": [],
      "name": "tokenRate",
      "outputs": [
        {
          "name": "",
          "type": "uint256"
        }
      ],
      "payable": false,
      "stateMutability": "view",
      "type": "function"
    },
    {
      "constant": true,
      "inputs": [
        {
          "name": "i",
          "type": "uint32"
        }
      ],
      "name": "getReceiver",
      "outputs": [
        {
          "name": "",
          "type": "address"
        }
      ],
      "payable": false,
      "stateMutability": "view",
      "type": "function"
    },
    {
      "constant": false,
      "inputs": [],
      "name": "unpause",
      "outputs": [],
      "payable": false,
      "stateMutability": "nonpayable",
      "type": "function"
    },
    {
      "constant": false,
      "inputs": [],
      "name": "claim",
      "outputs": [],
      "payable": false,
      "stateMutability": "nonpayable",
      "type": "function"
    },
    {
      "constant": true,
      "inputs": [],
      "name": "paused",
      "outputs": [
        {
          "name": "",
          "type": "bool"
        }
      ],
      "payable": false,
      "stateMutability": "view",
      "type": "function"
    },
    {
      "constant": false,
      "inputs": [
        {
          "name": "_tokenRate",
          "type": "uint256"
        }
      ],
      "name": "setTokenRate",
      "outputs": [],
      "payable": false,
      "stateMutability": "nonpayable",
      "type": "function"
    },
    {
      "constant": true,
      "inputs": [],
      "name": "bankAddress",
      "outputs": [
        {
          "name": "",
          "type": "address"
        }
      ],
      "payable": false,
      "stateMutability": "view",
      "type": "function"
    },
    {
      "constant": true,
      "inputs": [],
      "name": "isFinished",
      "outputs": [
        {
          "name": "",
          "type": "bool"
        }
      ],
      "payable": false,
      "stateMutability": "view",
      "type": "function"
    },
    {
      "constant": false,
      "inputs": [],
      "name": "pause",
      "outputs": [],
      "payable": false,
      "stateMutability": "nonpayable",
      "type": "function"
    },
    {
      "constant": true,
      "inputs": [],
      "name": "owner",
      "outputs": [
        {
          "name": "",
          "type": "address"
        }
      ],
      "payable": false,
      "stateMutability": "view",
      "type": "function"
    },
    {
      "constant": false,
      "inputs": [],
      "name": "buy",
      "outputs": [],
      "payable": true,
      "stateMutability": "payable",
      "type": "function"
    },
    {
      "constant": true,
      "inputs": [],
      "name": "getReceiversCount",
      "outputs": [
        {
          "name": "",
          "type": "uint32"
        }
      ],
      "payable": false,
      "stateMutability": "view",
      "type": "function"
    },
    {
      "constant": false,
      "inputs": [],
      "name": "claimAll",
      "outputs": [],
      "payable": false,
      "stateMutability": "nonpayable",
      "type": "function"
    },
    {
      "constant": false,
      "inputs": [],
      "name": "finish",
      "outputs": [],
      "payable": false,
      "stateMutability": "nonpayable",
      "type": "function"
    },
    {
      "constant": false,
      "inputs": [
        {
          "name": "_receiver",
          "type": "address"
        },
        {
          "name": "_equivalentEthAmount",
          "type": "uint256"
        }
      ],
      "name": "topUp",
      "outputs": [],
      "payable": false,
      "stateMutability": "nonpayable",
      "type": "function"
    },
    {
      "constant": true,
      "inputs": [
        {
          "name": "",
          "type": "address"
        }
      ],
      "name": "approved",
      "outputs": [
        {
          "name": "",
          "type": "bool"
        }
      ],
      "payable": false,
      "stateMutability": "view",
      "type": "function"
    },
    {
      "constant": false,
      "inputs": [
        {
          "name": "_receiver",
          "type": "address"
        }
      ],
      "name": "approve",
      "outputs": [],
      "payable": false,
      "stateMutability": "nonpayable",
      "type": "function"
    },
    {
      "constant": true,
      "inputs": [
        {
          "name": "",
          "type": "address"
        }
      ],
      "name": "tokens",
      "outputs": [
        {
          "name": "",
          "type": "uint256"
        }
      ],
      "payable": false,
      "stateMutability": "view",
      "type": "function"
    },
    {
      "constant": true,
      "inputs": [],
      "name": "issuedTokensAmount",
      "outputs": [
        {
          "name": "",
          "type": "uint256"
        }
      ],
      "payable": false,
      "stateMutability": "view",
      "type": "function"
    },
    {
      "constant": false,
      "inputs": [
        {
          "name": "newOwner",
          "type": "address"
        }
      ],
      "name": "transferOwnership",
      "outputs": [],
      "payable": false,
      "stateMutability": "nonpayable",
      "type": "function"
    },
    {
      "constant": false,
      "inputs": [
        {
          "name": "_receiver",
          "type": "address"
        },
        {
          "name": "_equivalentEthAmount",
          "type": "uint256"
        }
      ],
      "name": "add",
      "outputs": [],
      "payable": false,
      "stateMutability": "nonpayable",
      "type": "function"
    },
    {
      "constant": true,
      "inputs": [],
      "name": "token",
      "outputs": [
        {
          "name": "",
          "type": "address"
        }
      ],
      "payable": false,
      "stateMutability": "view",
      "type": "function"
    },
    {
      "inputs": [
        {
          "name": "_tokenAddress",
          "type": "address"
        },
        {
          "name": "_bankAddress",
          "type": "address"
        },
        {
          "name": "_beneficiaryAddress",
          "type": "address"
        },
        {
          "name": "_tokenRate",
          "type": "uint256"
        },
        {
          "name": "_minBuyableAmount",
          "type": "uint256"
        },
        {
          "name": "_maxTokensAmount",
          "type": "uint256"
        },
        {
          "name": "_endDate",
          "type": "uint256"
        }
      ],
      "payable": false,
      "stateMutability": "nonpayable",
      "type": "constructor"
    },
    {
      "payable": true,
      "stateMutability": "payable",
      "type": "fallback"
    },
    {
      "anonymous": false,
      "inputs": [
        {
          "indexed": true,
          "name": "_buyer",
          "type": "address"
        },
        {
          "indexed": false,
          "name": "_tokens",
          "type": "uint256"
        },
        {
          "indexed": false,
          "name": "_amount",
          "type": "uint256"
        }
      ],
      "name": "TokenBought",
      "type": "event"
    },
    {
      "anonymous": false,
      "inputs": [
        {
          "indexed": true,
          "name": "_receiver",
          "type": "address"
        },
        {
          "indexed": false,
          "name": "_tokens",
          "type": "uint256"
        },
        {
          "indexed": false,
          "name": "_equivalentAmount",
          "type": "uint256"
        }
      ],
      "name": "TokenAdded",
      "type": "event"
    },
    {
      "anonymous": false,
      "inputs": [
        {
          "indexed": true,
          "name": "_receiver",
          "type": "address"
        },
        {
          "indexed": false,
          "name": "_tokens",
          "type": "uint256"
        },
        {
          "indexed": false,
          "name": "_equivalentAmount",
          "type": "uint256"
        }
      ],
      "name": "TokenToppedUp",
      "type": "event"
    },
    {
      "anonymous": false,
      "inputs": [
        {
          "indexed": true,
          "name": "_receiver",
          "type": "address"
        },
        {
          "indexed": false,
          "name": "_tokens",
          "type": "uint256"
        },
        {
          "indexed": false,
          "name": "_equivalentAmount",
          "type": "uint256"
        }
      ],
      "name": "TokenSubtracted",
      "type": "event"
    },
    {
      "anonymous": false,
      "inputs": [
        {
          "indexed": true,
          "name": "_receiver",
          "type": "address"
        },
        {
          "indexed": false,
          "name": "_tokens",
          "type": "uint256"
        }
      ],
      "name": "TokenSent",
      "type": "event"
    },
    {
      "anonymous": false,
      "inputs": [],
      "name": "Pause",
      "type": "event"
    },
    {
      "anonymous": false,
      "inputs": [],
      "name": "Unpause",
      "type": "event"
    },
    {
      "anonymous": false,
      "inputs": [
        {
          "indexed": true,
          "name": "previousOwner",
          "type": "address"
        },
        {
          "indexed": true,
          "name": "newOwner",
          "type": "address"
        }
      ],
      "name": "OwnershipTransferred",
      "type": "event"
    }
  ],
  "bytecode": "0x606060405260008060146101000a81548160ff02191690831515021790555060006005556000600960006101000a81548160ff021916908315150217905550341561004957600080fd5b60405160e080611f5b83398101604052808051906020019091908051906020019091908051906020019091908051906020019091908051906020019091908051906020019091908051906020019091905050336000806101000a81548173ffffffffffffffffffffffffffffffffffffffff021916908373ffffffffffffffffffffffffffffffffffffffff16021790555086600360006101000a81548173ffffffffffffffffffffffffffffffffffffffff021916908373ffffffffffffffffffffffffffffffffffffffff16021790555085600260006101000a81548173ffffffffffffffffffffffffffffffffffffffff021916908373ffffffffffffffffffffffffffffffffffffffff16021790555084600160006101000a81548173ffffffffffffffffffffffffffffffffffffffff021916908373ffffffffffffffffffffffffffffffffffffffff1602179055508360078190555082600681905550816004819055508060088190555050505050505050611d8b806101d06000396000f300606060405260043610610154576000357c0100000000000000000000000000000000000000000000000000000000900463ffffffff1680630262dc131461015e5780630a384665146101975780632511b182146101c057806326ffee08146101e9578063317118841461022b5780633c78fe07146102545780633f4ba83a146102bd5780634e71d92d146102d25780635c975abb146102e757806361241c28146103145780637822ed49146103375780637b3529621461038c5780638456cb59146103b95780638da5cb5b146103ce578063a6f2ae3a14610423578063a72a05f71461042d578063d1058e5914610462578063d56b288914610477578063d6f7ddf91461048c578063d8b964e6146104ce578063daea85c51461051f578063e486033914610558578063e69b414b146105a5578063f2fde38b146105ce578063f5d82b6b14610607578063fc0c546a14610649575b61015c61069e565b005b341561016957600080fd5b610195600480803573ffffffffffffffffffffffffffffffffffffffff169060200190919050506108af565b005b34156101a257600080fd5b6101aa610932565b6040518082815260200191505060405180910390f35b34156101cb57600080fd5b6101d3610938565b6040518082815260200191505060405180910390f35b34156101f457600080fd5b610229600480803573ffffffffffffffffffffffffffffffffffffffff1690602001909190803590602001909190505061093e565b005b341561023657600080fd5b61023e610b27565b6040518082815260200191505060405180910390f35b341561025f57600080fd5b61027b600480803563ffffffff16906020019091905050610b2d565b604051808273ffffffffffffffffffffffffffffffffffffffff1673ffffffffffffffffffffffffffffffffffffffff16815260200191505060405180910390f35b34156102c857600080fd5b6102d0610bd1565b005b34156102dd57600080fd5b6102e5610c8f565b005b34156102f257600080fd5b6102fa610cb6565b604051808215151515815260200191505060405180910390f35b341561031f57600080fd5b6103356004808035906020019091905050610cc9565b005b341561034257600080fd5b61034a610d3d565b604051808273ffffffffffffffffffffffffffffffffffffffff1673ffffffffffffffffffffffffffffffffffffffff16815260200191505060405180910390f35b341561039757600080fd5b61039f610d63565b604051808215151515815260200191505060405180910390f35b34156103c457600080fd5b6103cc610d76565b005b34156103d957600080fd5b6103e1610e36565b604051808273ffffffffffffffffffffffffffffffffffffffff1673ffffffffffffffffffffffffffffffffffffffff16815260200191505060405180910390f35b61042b61069e565b005b341561043857600080fd5b610440610e5b565b604051808263ffffffff1663ffffffff16815260200191505060405180910390f35b341561046d57600080fd5b610475610ed0565b005b341561048257600080fd5b61048a61106f565b005b341561049757600080fd5b6104cc600480803573ffffffffffffffffffffffffffffffffffffffff1690602001909190803590602001909190505061130c565b005b34156104d957600080fd5b610505600480803573ffffffffffffffffffffffffffffffffffffffff1690602001909190505061141c565b604051808215151515815260200191505060405180910390f35b341561052a57600080fd5b610556600480803573ffffffffffffffffffffffffffffffffffffffff1690602001909190505061143c565b005b341561056357600080fd5b61058f600480803573ffffffffffffffffffffffffffffffffffffffff1690602001909190505061150e565b6040518082815260200191505060405180910390f35b34156105b057600080fd5b6105b8611526565b6040518082815260200191505060405180910390f35b34156105d957600080fd5b610605600480803573ffffffffffffffffffffffffffffffffffffffff1690602001909190505061152c565b005b341561061257600080fd5b610647600480803573ffffffffffffffffffffffffffffffffffffffff16906020019091908035906020019091905050611681565b005b341561065457600080fd5b61065c6117d0565b604051808273ffffffffffffffffffffffffffffffffffffffff1673ffffffffffffffffffffffffffffffffffffffff16815260200191505060405180910390f35b6000806000600960009054906101000a900460ff161515156106bf57600080fd5b6004546005541015156106d157600080fd5b60085442111515156106e257600080fd5b600060149054906101000a900460ff161515156106fe57600080fd5b3492506000915061071a836007546117f690919063ffffffff16565b9050600454816005540111156107705761074160055460045461183190919063ffffffff16565b90506107586007548261184a90919063ffffffff16565b925061076d833461183190919063ffffffff16565b91505b6107858160055461186590919063ffffffff16565b6005819055506004546005541115151561079e57600080fd5b6107a83382611883565b3373ffffffffffffffffffffffffffffffffffffffff167f28cab0d660ed8aedd61a8c9db00b97f6a2d67e07d87795994f440b18bc5f1aa38285604051808381526020018281526020019250505060405180910390a2600160009054906101000a900473ffffffffffffffffffffffffffffffffffffffff1673ffffffffffffffffffffffffffffffffffffffff166108fc849081150290604051600060405180830381858888f19350505050151561086057600080fd5b60008211156108aa573373ffffffffffffffffffffffffffffffffffffffff166108fc839081150290604051600060405180830381858888f1935050505015156108a957600080fd5b5b505050565b6000809054906101000a900473ffffffffffffffffffffffffffffffffffffffff1673ffffffffffffffffffffffffffffffffffffffff163373ffffffffffffffffffffffffffffffffffffffff1614151561090a57600080fd5b600060149054906101000a900460ff1615151561092657600080fd5b61092f81611a84565b50565b60045481565b60065481565b60008060009054906101000a900473ffffffffffffffffffffffffffffffffffffffff1673ffffffffffffffffffffffffffffffffffffffff163373ffffffffffffffffffffffffffffffffffffffff1614151561099b57600080fd5b600060149054906101000a900460ff161515156109b757600080fd5b6109cc826007546117f690919063ffffffff16565b905080600a60008573ffffffffffffffffffffffffffffffffffffffff1673ffffffffffffffffffffffffffffffffffffffff1681526020019081526020016000205410151515610a1c57600080fd5b610a6e81600a60008673ffffffffffffffffffffffffffffffffffffffff1673ffffffffffffffffffffffffffffffffffffffff1681526020019081526020016000205461183190919063ffffffff16565b600a60008573ffffffffffffffffffffffffffffffffffffffff1673ffffffffffffffffffffffffffffffffffffffff16815260200190815260200160002081905550610ac68160055461183190919063ffffffff16565b6005819055508273ffffffffffffffffffffffffffffffffffffffff167f2da8b2becb27b189a54d21689aa110c877379a94c6f59f115cedc91d66239b338284604051808381526020018281526020019250505060405180910390a2505050565b60075481565b60008060009054906101000a900473ffffffffffffffffffffffffffffffffffffffff1673ffffffffffffffffffffffffffffffffffffffff163373ffffffffffffffffffffffffffffffffffffffff16141515610b8a57600080fd5b600c60008363ffffffff1663ffffffff16815260200190815260200160002060009054906101000a900473ffffffffffffffffffffffffffffffffffffffff169050919050565b6000809054906101000a900473ffffffffffffffffffffffffffffffffffffffff1673ffffffffffffffffffffffffffffffffffffffff163373ffffffffffffffffffffffffffffffffffffffff16141515610c2c57600080fd5b600060149054906101000a900460ff161515610c4757600080fd5b60008060146101000a81548160ff0219169083151502179055507f7805862f689e2f13df9f062ff482ad3ad112aca9e0847911ed832e158c525b3360405160405180910390a1565b600060149054906101000a900460ff16151515610cab57600080fd5b610cb433611a84565b565b600060149054906101000a900460ff1681565b6000809054906101000a900473ffffffffffffffffffffffffffffffffffffffff1673ffffffffffffffffffffffffffffffffffffffff163373ffffffffffffffffffffffffffffffffffffffff16141515610d2457600080fd5b600081111515610d3357600080fd5b8060078190555050565b600260009054906101000a900473ffffffffffffffffffffffffffffffffffffffff1681565b600960009054906101000a900460ff1681565b6000809054906101000a900473ffffffffffffffffffffffffffffffffffffffff1673ffffffffffffffffffffffffffffffffffffffff163373ffffffffffffffffffffffffffffffffffffffff16141515610dd157600080fd5b600060149054906101000a900460ff16151515610ded57600080fd5b6001600060146101000a81548160ff0219169083151502179055507f6985a02210a168e66602d3235cb6db0e70f92b3ba4d376a33c0f3d9434bff62560405160405180910390a1565b6000809054906101000a900473ffffffffffffffffffffffffffffffffffffffff1681565b60008060009054906101000a900473ffffffffffffffffffffffffffffffffffffffff1673ffffffffffffffffffffffffffffffffffffffff163373ffffffffffffffffffffffffffffffffffffffff16141515610eb857600080fd5b600d60009054906101000a900463ffffffff16905090565b6000806000809054906101000a900473ffffffffffffffffffffffffffffffffffffffff1673ffffffffffffffffffffffffffffffffffffffff163373ffffffffffffffffffffffffffffffffffffffff16141515610f2e57600080fd5b600060149054906101000a900460ff16151515610f4a57600080fd5b600091505b600d60009054906101000a900463ffffffff1663ffffffff168263ffffffff16101561106b57600c60008363ffffffff1663ffffffff16815260200190815260200160002060009054906101000a900473ffffffffffffffffffffffffffffffffffffffff169050600b60008273ffffffffffffffffffffffffffffffffffffffff1673ffffffffffffffffffffffffffffffffffffffff16815260200190815260200160002060009054906101000a900460ff16801561104f57506000600a60008373ffffffffffffffffffffffffffffffffffffffff1673ffffffffffffffffffffffffffffffffffffffff16815260200190815260200160002054115b1561105e5761105d81611a84565b5b8180600101925050610f4f565b5050565b6000809054906101000a900473ffffffffffffffffffffffffffffffffffffffff1673ffffffffffffffffffffffffffffffffffffffff163373ffffffffffffffffffffffffffffffffffffffff161415156110ca57600080fd5b6004546005541015806110de575060085442115b15156110e957600080fd5b600960009054906101000a900460ff1615151561110557600080fd5b6001600960006101000a81548160ff021916908315150217905550600360009054906101000a900473ffffffffffffffffffffffffffffffffffffffff1673ffffffffffffffffffffffffffffffffffffffff1663a9059cbb600260009054906101000a900473ffffffffffffffffffffffffffffffffffffffff16600360009054906101000a900473ffffffffffffffffffffffffffffffffffffffff1673ffffffffffffffffffffffffffffffffffffffff166370a08231306000604051602001526040518263ffffffff167c0100000000000000000000000000000000000000000000000000000000028152600401808273ffffffffffffffffffffffffffffffffffffffff1673ffffffffffffffffffffffffffffffffffffffff168152602001915050602060405180830381600087803b151561124657600080fd5b6102c65a03f1151561125757600080fd5b505050604051805190506000604051602001526040518363ffffffff167c0100000000000000000000000000000000000000000000000000000000028152600401808373ffffffffffffffffffffffffffffffffffffffff1673ffffffffffffffffffffffffffffffffffffffff16815260200182815260200192505050602060405180830381600087803b15156112ee57600080fd5b6102c65a03f115156112ff57600080fd5b5050506040518051905050565b60008060009054906101000a900473ffffffffffffffffffffffffffffffffffffffff1673ffffffffffffffffffffffffffffffffffffffff163373ffffffffffffffffffffffffffffffffffffffff1614151561136957600080fd5b600060149054906101000a900460ff1615151561138557600080fd5b61139a826007546117f690919063ffffffff16565b90506113b18160055461186590919063ffffffff16565b6005819055506113c18382611883565b8273ffffffffffffffffffffffffffffffffffffffff167ff10143e1b37ebaf3698e98976d8bddabcea045adc939c03b245da18e81ea96518284604051808381526020018281526020019250505060405180910390a2505050565b600b6020528060005260406000206000915054906101000a900460ff1681565b6000809054906101000a900473ffffffffffffffffffffffffffffffffffffffff1673ffffffffffffffffffffffffffffffffffffffff163373ffffffffffffffffffffffffffffffffffffffff1614151561149757600080fd5b600060149054906101000a900460ff161515156114b357600080fd5b6001600b60008373ffffffffffffffffffffffffffffffffffffffff1673ffffffffffffffffffffffffffffffffffffffff16815260200190815260200160002060006101000a81548160ff02191690831515021790555050565b600a6020528060005260406000206000915090505481565b60055481565b6000809054906101000a900473ffffffffffffffffffffffffffffffffffffffff1673ffffffffffffffffffffffffffffffffffffffff163373ffffffffffffffffffffffffffffffffffffffff1614151561158757600080fd5b600073ffffffffffffffffffffffffffffffffffffffff168173ffffffffffffffffffffffffffffffffffffffff16141515156115c357600080fd5b8073ffffffffffffffffffffffffffffffffffffffff166000809054906101000a900473ffffffffffffffffffffffffffffffffffffffff1673ffffffffffffffffffffffffffffffffffffffff167f8be0079c531659141344cd1fd0a4f28419497f9722a3daafe3b4186f6b6457e060405160405180910390a3806000806101000a81548173ffffffffffffffffffffffffffffffffffffffff021916908373ffffffffffffffffffffffffffffffffffffffff16021790555050565b60008060009054906101000a900473ffffffffffffffffffffffffffffffffffffffff1673ffffffffffffffffffffffffffffffffffffffff163373ffffffffffffffffffffffffffffffffffffffff161415156116de57600080fd5b600960009054906101000a900460ff161515156116fa57600080fd5b60045460055410151561170c57600080fd5b600854421115151561171d57600080fd5b600060149054906101000a900460ff1615151561173957600080fd5b61174e826007546117f690919063ffffffff16565b90506117658160055461186590919063ffffffff16565b6005819055506117758382611883565b8273ffffffffffffffffffffffffffffffffffffffff167fa818a22273fc309f0a3682b642c74c5b5c25c0615ff378d07767cd231e19fffc8284604051808381526020018281526020019250505060405180910390a2505050565b600360009054906101000a900473ffffffffffffffffffffffffffffffffffffffff1681565b600080600084141561180b576000915061182a565b828402905082848281151561181c57fe5b0414151561182657fe5b8091505b5092915050565b600082821115151561183f57fe5b818303905092915050565b600080828481151561185857fe5b0490508091505092915050565b600080828401905083811015151561187957fe5b8091505092915050565b600060149054906101000a900460ff1615151561189f57600080fd5b6000600a60008473ffffffffffffffffffffffffffffffffffffffff1673ffffffffffffffffffffffffffffffffffffffff1681526020019081526020016000205414156119eb5781600c6000600d60009054906101000a900463ffffffff1663ffffffff1663ffffffff16815260200190815260200160002060006101000a81548173ffffffffffffffffffffffffffffffffffffffff021916908373ffffffffffffffffffffffffffffffffffffffff160217905550600d600081819054906101000a900463ffffffff168092919060010191906101000a81548163ffffffff021916908363ffffffff160217905550506000600b60008473ffffffffffffffffffffffffffffffffffffffff1673ffffffffffffffffffffffffffffffffffffffff16815260200190815260200160002060006101000a81548160ff0219169083151502179055505b611a3d81600a60008573ffffffffffffffffffffffffffffffffffffffff1673ffffffffffffffffffffffffffffffffffffffff1681526020019081526020016000205461186590919063ffffffff16565b600a60008473ffffffffffffffffffffffffffffffffffffffff1673ffffffffffffffffffffffffffffffffffffffff168152602001908152602001600020819055505050565b60008060149054906101000a900460ff16151515611aa157600080fd5b600b60008373ffffffffffffffffffffffffffffffffffffffff1673ffffffffffffffffffffffffffffffffffffffff16815260200190815260200160002060009054906101000a900460ff161515611af957600080fd5b6000600a60008473ffffffffffffffffffffffffffffffffffffffff1673ffffffffffffffffffffffffffffffffffffffff16815260200190815260200160002054111515611b4757600080fd5b600a60008373ffffffffffffffffffffffffffffffffffffffff1673ffffffffffffffffffffffffffffffffffffffff1681526020019081526020016000205490506000600a60008473ffffffffffffffffffffffffffffffffffffffff1673ffffffffffffffffffffffffffffffffffffffff16815260200190815260200160002081905550600360009054906101000a900473ffffffffffffffffffffffffffffffffffffffff1673ffffffffffffffffffffffffffffffffffffffff166323b872dd600260009054906101000a900473ffffffffffffffffffffffffffffffffffffffff1684846000604051602001526040518463ffffffff167c0100000000000000000000000000000000000000000000000000000000028152600401808473ffffffffffffffffffffffffffffffffffffffff1673ffffffffffffffffffffffffffffffffffffffff1681526020018373ffffffffffffffffffffffffffffffffffffffff1673ffffffffffffffffffffffffffffffffffffffff1681526020018281526020019350505050602060405180830381600087803b1515611cf157600080fd5b6102c65a03f11515611d0257600080fd5b50505060405180519050508173ffffffffffffffffffffffffffffffffffffffff167fd4ff88d569a7ad2bfd6b17da9dbe82e2ccc016fd0051e08ff1ad1e6fe8fc9b55826040518082815260200191505060405180910390a250505600a165627a7a72305820ac38c68b13fa49247c45fd9865f442f3cdca3fffb7057db86c1b5558749354e70029",
  "source": "pragma solidity ^0.4.11;\n\nimport 'zeppelin-solidity/contracts/math/SafeMath.sol';\nimport 'zeppelin-solidity/contracts/lifecycle/Pausable.sol';\nimport './HoQuToken.sol';\n\n/**\n * @title ClaimableCrowdsale\n * @title HoQu.io claimable crowdsale contract.\n */\ncontract ClaimableCrowdsale is Pausable {\n    using SafeMath for uint256;\n\n    // all accepted ethers will be sent to this address\n    address beneficiaryAddress;\n\n    // all remain tokens after ICO should go to that address\n    address public bankAddress;\n\n    // token instance\n    HoQuToken public token;\n\n    uint256 public maxTokensAmount;\n    uint256 public issuedTokensAmount = 0;\n    uint256 public minBuyableAmount;\n    uint256 public tokenRate; // amount of HQX per 1 ETH\n\n    uint256 endDate;\n\n    bool public isFinished = false;\n\n    // buffer for claimable tokens\n    mapping(address => uint256) public tokens;\n    mapping(address => bool) public approved;\n    mapping(uint32 => address) internal tokenReceivers;\n    uint32 internal receiversCount;\n\n    /**\n    * Events for token purchase logging\n    */\n    event TokenBought(address indexed _buyer, uint256 _tokens, uint256 _amount);\n    event TokenAdded(address indexed _receiver, uint256 _tokens, uint256 _equivalentAmount);\n    event TokenToppedUp(address indexed _receiver, uint256 _tokens, uint256 _equivalentAmount);\n    event TokenSubtracted(address indexed _receiver, uint256 _tokens, uint256 _equivalentAmount);\n    event TokenSent(address indexed _receiver, uint256 _tokens);\n\n    modifier inProgress() {\n        require (!isFinished);\n        require (issuedTokensAmount < maxTokensAmount);\n        require (now <= endDate);\n        _;\n    }\n\n    /**\n    * @param _tokenAddress address of a HQX token contract\n    * @param _bankAddress address for remain HQX tokens accumulation\n    * @param _beneficiaryAddress accepted ETH go to this address\n    * @param _tokenRate rate HQX per 1 ETH\n    * @param _minBuyableAmount min ETH per each buy action (in ETH wei)\n    * @param _maxTokensAmount ICO HQX capacity (in HQX wei)\n    * @param _endDate the date when ICO will expire\n    */\n    function ClaimableCrowdsale(\n        address _tokenAddress,\n        address _bankAddress,\n        address _beneficiaryAddress,\n        uint256 _tokenRate,\n        uint256 _minBuyableAmount,\n        uint256 _maxTokensAmount,\n        uint256 _endDate\n    ) {\n        token = HoQuToken(_tokenAddress);\n\n        bankAddress = _bankAddress;\n        beneficiaryAddress = _beneficiaryAddress;\n\n        tokenRate = _tokenRate;\n        minBuyableAmount = _minBuyableAmount;\n        maxTokensAmount = _maxTokensAmount;\n\n        endDate = _endDate;\n    }\n\n    /*\n     * @dev Set new HoQu token exchange rate.\n     */\n    function setTokenRate(uint256 _tokenRate) onlyOwner {\n        require (_tokenRate > 0);\n        tokenRate = _tokenRate;\n    }\n\n    /**\n     * Buy HQX. Tokens will be stored in contract until claim stage\n     */\n    function buy() payable inProgress whenNotPaused {\n        uint256 payAmount = msg.value;\n        uint256 returnAmount = 0;\n\n        // calculate token amount to be transfered to investor\n        uint256 tokensAmount = tokenRate.mul(payAmount);\n\n        if (issuedTokensAmount + tokensAmount > maxTokensAmount) {\n            tokensAmount = maxTokensAmount.sub(issuedTokensAmount);\n            payAmount = tokensAmount.div(tokenRate);\n            returnAmount = msg.value.sub(payAmount);\n        }\n\n        issuedTokensAmount = issuedTokensAmount.add(tokensAmount);\n        require (issuedTokensAmount <= maxTokensAmount);\n\n        storeTokens(msg.sender, tokensAmount);\n        TokenBought(msg.sender, tokensAmount, payAmount);\n\n        beneficiaryAddress.transfer(payAmount);\n\n        if (returnAmount > 0) {\n            msg.sender.transfer(returnAmount);\n        }\n    }\n\n    /**\n     * Add HQX payed by another crypto (BTC, LTC). Tokens will be stored in contract until claim stage\n     */\n    function add(address _receiver, uint256 _equivalentEthAmount) onlyOwner inProgress whenNotPaused {\n        uint256 tokensAmount = tokenRate.mul(_equivalentEthAmount);\n        issuedTokensAmount = issuedTokensAmount.add(tokensAmount);\n\n        storeTokens(_receiver, tokensAmount);\n        TokenAdded(_receiver, tokensAmount, _equivalentEthAmount);\n    }\n\n    /**\n     * Add HQX by referral program. Tokens will be stored in contract until claim stage\n     */\n    function topUp(address _receiver, uint256 _equivalentEthAmount) onlyOwner whenNotPaused {\n        uint256 tokensAmount = tokenRate.mul(_equivalentEthAmount);\n        issuedTokensAmount = issuedTokensAmount.add(tokensAmount);\n\n        storeTokens(_receiver, tokensAmount);\n        TokenToppedUp(_receiver, tokensAmount, _equivalentEthAmount);\n    }\n\n    /**\n     * Reduce bought HQX amount. Emergency use only\n     */\n    function sub(address _receiver, uint256 _equivalentEthAmount) onlyOwner whenNotPaused {\n        uint256 tokensAmount = tokenRate.mul(_equivalentEthAmount);\n\n        require (tokens[_receiver] >= tokensAmount);\n\n        tokens[_receiver] = tokens[_receiver].sub(tokensAmount);\n        issuedTokensAmount = issuedTokensAmount.sub(tokensAmount);\n\n        TokenSubtracted(_receiver, tokensAmount, _equivalentEthAmount);\n    }\n\n    /**\n     * Internal method for storing tokens in contract until claim stage\n     */\n    function storeTokens(address _receiver, uint256 _tokensAmount) internal whenNotPaused {\n        if (tokens[_receiver] == 0) {\n            tokenReceivers[receiversCount] = _receiver;\n            receiversCount++;\n            approved[_receiver] = false;\n        }\n        tokens[_receiver] = tokens[_receiver].add(_tokensAmount);\n    }\n\n    /**\n     * Claim all bought HQX. Available tokens will be sent to transaction sender address if it is approved\n     */\n    function claim() whenNotPaused {\n        claimFor(msg.sender);\n    }\n\n    /**\n     * Claim all bought HQX for specific approved address\n     */\n    function claimOne(address _receiver) onlyOwner whenNotPaused {\n        claimFor(_receiver);\n    }\n\n    /**\n     * Claim all bought HQX for all approved addresses\n     */\n    function claimAll() onlyOwner whenNotPaused {\n        for (uint32 i = 0; i < receiversCount; i++) {\n            address receiver = tokenReceivers[i];\n            if (approved[receiver] && tokens[receiver] > 0) {\n                claimFor(receiver);\n            }\n        }\n    }\n\n    /**\n     * Internal method for claiming tokens for specific approved address\n     */\n    function claimFor(address _receiver) internal whenNotPaused {\n        require(approved[_receiver]);\n        require(tokens[_receiver] > 0);\n\n        uint256 tokensToSend = tokens[_receiver];\n        tokens[_receiver] = 0;\n\n        token.transferFrom(bankAddress, _receiver, tokensToSend);\n        TokenSent(_receiver, tokensToSend);\n    }\n\n    function approve(address _receiver) onlyOwner whenNotPaused {\n        approved[_receiver] = true;\n    }\n\n    /**\n     * Finish Sale.\n     */\n    function finish() onlyOwner {\n        require (issuedTokensAmount >= maxTokensAmount || now > endDate);\n        require (!isFinished);\n        isFinished = true;\n        token.transfer(bankAddress, token.balanceOf(this));\n    }\n\n    function getReceiversCount() constant onlyOwner returns (uint32) {\n        return receiversCount;\n    }\n\n    function getReceiver(uint32 i) constant onlyOwner returns (address) {\n        return tokenReceivers[i];\n    }\n\n    /**\n     * Buy HQX. Tokens will be stored in contract until claim stage\n     */\n    function() external payable {\n        buy();\n    }\n}",
  "sourcePath": "/Users/slash686/Projects/hoqu-sale-github/contracts/ClaimableCrowdsale.sol",
  "compiler": {
    "name": "solc",
    "version": "0.4.18+commit.9cf6e910.Emscripten.clang"
  },
  "schemaVersion": "1.0.1",
  "updatedAt": "2017-12-05T07:53:53.920Z"
}