{
  "contractName": "HoQuBounty",
  "abi": [
    {
      "constant": false,
      "inputs": [
        {
          "name": "_receiver",
          "type": "address"
        }
      ],
      "name": "claimOne",
      "outputs": [],
      "payable": false,
      "stateMutability": "nonpayable",
      "type": "function"
    },
    {
      "constant": true,
      "inputs": [],
      "name": "maxTokensAmount",
      "outputs": [
        {
          "name": "",
          "type": "uint256"
        }
      ],
      "payable": false,
      "stateMutability": "view",
      "type": "function"
    },
    {
      "constant": true,
      "inputs": [],
      "name": "minBuyableAmount",
      "outputs": [
        {
          "name": "",
          "type": "uint256"
        }
      ],
      "payable": false,
      "stateMutability": "view",
      "type": "function"
    },
    {
      "constant": false,
      "inputs": [
        {
          "name": "_receiver",
          "type": "address"
        },
        {
          "name": "_equivalentEthAmount",
          "type": "uint256"
        }
      ],
      "name": "sub",
      "outputs": [],
      "payable": false,
      "stateMutability": "nonpayable",
      "type": "function"
    },
    {
      "constant": true,
      "inputs": [],
      "name": "tokenRate",
      "outputs": [
        {
          "name": "",
          "type": "uint256"
        }
      ],
      "payable": false,
      "stateMutability": "view",
      "type": "function"
    },
    {
      "constant": false,
      "inputs": [],
      "name": "approveAll",
      "outputs": [],
      "payable": false,
      "stateMutability": "nonpayable",
      "type": "function"
    },
    {
      "constant": true,
      "inputs": [
        {
          "name": "i",
          "type": "uint32"
        }
      ],
      "name": "getReceiver",
      "outputs": [
        {
          "name": "",
          "type": "address"
        }
      ],
      "payable": false,
      "stateMutability": "view",
      "type": "function"
    },
    {
      "constant": false,
      "inputs": [],
      "name": "unpause",
      "outputs": [],
      "payable": false,
      "stateMutability": "nonpayable",
      "type": "function"
    },
    {
      "constant": false,
      "inputs": [],
      "name": "claim",
      "outputs": [],
      "payable": false,
      "stateMutability": "nonpayable",
      "type": "function"
    },
    {
      "constant": true,
      "inputs": [],
      "name": "paused",
      "outputs": [
        {
          "name": "",
          "type": "bool"
        }
      ],
      "payable": false,
      "stateMutability": "view",
      "type": "function"
    },
    {
      "constant": false,
      "inputs": [
        {
          "name": "_tokenRate",
          "type": "uint256"
        }
      ],
      "name": "setTokenRate",
      "outputs": [],
      "payable": false,
      "stateMutability": "nonpayable",
      "type": "function"
    },
    {
      "constant": true,
      "inputs": [],
      "name": "bankAddress",
      "outputs": [
        {
          "name": "",
          "type": "address"
        }
      ],
      "payable": false,
      "stateMutability": "view",
      "type": "function"
    },
    {
      "constant": true,
      "inputs": [],
      "name": "isFinished",
      "outputs": [
        {
          "name": "",
          "type": "bool"
        }
      ],
      "payable": false,
      "stateMutability": "view",
      "type": "function"
    },
    {
      "constant": false,
      "inputs": [],
      "name": "pause",
      "outputs": [],
      "payable": false,
      "stateMutability": "nonpayable",
      "type": "function"
    },
    {
      "constant": true,
      "inputs": [],
      "name": "owner",
      "outputs": [
        {
          "name": "",
          "type": "address"
        }
      ],
      "payable": false,
      "stateMutability": "view",
      "type": "function"
    },
    {
      "constant": false,
      "inputs": [],
      "name": "buy",
      "outputs": [],
      "payable": true,
      "stateMutability": "payable",
      "type": "function"
    },
    {
      "constant": true,
      "inputs": [],
      "name": "getReceiversCount",
      "outputs": [
        {
          "name": "",
          "type": "uint32"
        }
      ],
      "payable": false,
      "stateMutability": "view",
      "type": "function"
    },
    {
      "constant": false,
      "inputs": [],
      "name": "claimAll",
      "outputs": [],
      "payable": false,
      "stateMutability": "nonpayable",
      "type": "function"
    },
    {
      "constant": false,
      "inputs": [],
      "name": "finish",
      "outputs": [],
      "payable": false,
      "stateMutability": "nonpayable",
      "type": "function"
    },
    {
      "constant": false,
      "inputs": [
        {
          "name": "_receiver",
          "type": "address"
        },
        {
          "name": "_equivalentEthAmount",
          "type": "uint256"
        }
      ],
      "name": "topUp",
      "outputs": [],
      "payable": false,
      "stateMutability": "nonpayable",
      "type": "function"
    },
    {
      "constant": true,
      "inputs": [
        {
          "name": "",
          "type": "address"
        }
      ],
      "name": "approved",
      "outputs": [
        {
          "name": "",
          "type": "bool"
        }
      ],
      "payable": false,
      "stateMutability": "view",
      "type": "function"
    },
    {
      "constant": false,
      "inputs": [
        {
          "name": "_receiver",
          "type": "address"
        }
      ],
      "name": "approve",
      "outputs": [],
      "payable": false,
      "stateMutability": "nonpayable",
      "type": "function"
    },
    {
      "constant": true,
      "inputs": [
        {
          "name": "",
          "type": "address"
        }
      ],
      "name": "tokens",
      "outputs": [
        {
          "name": "",
          "type": "uint256"
        }
      ],
      "payable": false,
      "stateMutability": "view",
      "type": "function"
    },
    {
      "constant": true,
      "inputs": [],
      "name": "issuedTokensAmount",
      "outputs": [
        {
          "name": "",
          "type": "uint256"
        }
      ],
      "payable": false,
      "stateMutability": "view",
      "type": "function"
    },
    {
      "constant": false,
      "inputs": [
        {
          "name": "_receiver",
          "type": "address"
        },
        {
          "name": "_tokensAmount",
          "type": "uint256"
        }
      ],
      "name": "addByBounty",
      "outputs": [],
      "payable": false,
      "stateMutability": "nonpayable",
      "type": "function"
    },
    {
      "constant": false,
      "inputs": [
        {
          "name": "newOwner",
          "type": "address"
        }
      ],
      "name": "transferOwnership",
      "outputs": [],
      "payable": false,
      "stateMutability": "nonpayable",
      "type": "function"
    },
    {
      "constant": false,
      "inputs": [
        {
          "name": "_receiver",
          "type": "address"
        },
        {
          "name": "_equivalentEthAmount",
          "type": "uint256"
        }
      ],
      "name": "add",
      "outputs": [],
      "payable": false,
      "stateMutability": "nonpayable",
      "type": "function"
    },
    {
      "constant": true,
      "inputs": [],
      "name": "token",
      "outputs": [
        {
          "name": "",
          "type": "address"
        }
      ],
      "payable": false,
      "stateMutability": "view",
      "type": "function"
    },
    {
      "inputs": [
        {
          "name": "_tokenAddress",
          "type": "address"
        },
        {
          "name": "_bankAddress",
          "type": "address"
        },
        {
          "name": "_beneficiaryAddress",
          "type": "address"
        }
      ],
      "payable": false,
      "stateMutability": "nonpayable",
      "type": "constructor"
    },
    {
      "payable": true,
      "stateMutability": "payable",
      "type": "fallback"
    },
    {
      "anonymous": false,
      "inputs": [
        {
          "indexed": true,
          "name": "_receiver",
          "type": "address"
        },
        {
          "indexed": false,
          "name": "_tokens",
          "type": "uint256"
        }
      ],
      "name": "TokenAddedByBounty",
      "type": "event"
    },
    {
      "anonymous": false,
      "inputs": [
        {
          "indexed": true,
          "name": "_buyer",
          "type": "address"
        },
        {
          "indexed": false,
          "name": "_tokens",
          "type": "uint256"
        },
        {
          "indexed": false,
          "name": "_amount",
          "type": "uint256"
        }
      ],
      "name": "TokenBought",
      "type": "event"
    },
    {
      "anonymous": false,
      "inputs": [
        {
          "indexed": true,
          "name": "_receiver",
          "type": "address"
        },
        {
          "indexed": false,
          "name": "_tokens",
          "type": "uint256"
        },
        {
          "indexed": false,
          "name": "_equivalentAmount",
          "type": "uint256"
        }
      ],
      "name": "TokenAdded",
      "type": "event"
    },
    {
      "anonymous": false,
      "inputs": [
        {
          "indexed": true,
          "name": "_receiver",
          "type": "address"
        },
        {
          "indexed": false,
          "name": "_tokens",
          "type": "uint256"
        },
        {
          "indexed": false,
          "name": "_equivalentAmount",
          "type": "uint256"
        }
      ],
      "name": "TokenToppedUp",
      "type": "event"
    },
    {
      "anonymous": false,
      "inputs": [
        {
          "indexed": true,
          "name": "_receiver",
          "type": "address"
        },
        {
          "indexed": false,
          "name": "_tokens",
          "type": "uint256"
        },
        {
          "indexed": false,
          "name": "_equivalentAmount",
          "type": "uint256"
        }
      ],
      "name": "TokenSubtracted",
      "type": "event"
    },
    {
      "anonymous": false,
      "inputs": [
        {
          "indexed": true,
          "name": "_receiver",
          "type": "address"
        },
        {
          "indexed": false,
          "name": "_tokens",
          "type": "uint256"
        }
      ],
      "name": "TokenSent",
      "type": "event"
    },
    {
      "anonymous": false,
      "inputs": [],
      "name": "Pause",
      "type": "event"
    },
    {
      "anonymous": false,
      "inputs": [],
      "name": "Unpause",
      "type": "event"
    },
    {
      "anonymous": false,
      "inputs": [
        {
          "indexed": true,
          "name": "previousOwner",
          "type": "address"
        },
        {
          "indexed": true,
          "name": "newOwner",
          "type": "address"
        }
      ],
      "name": "OwnershipTransferred",
      "type": "event"
    }
  ],
  "bytecode": "0x606060405260008060146101000a81548160ff02191690831515021790555060006005556000600960006101000a81548160ff021916908315150217905550341561004957600080fd5b6040516060806121b583398101604052808051906020019091908051906020019091908051906020019091905050828282611770662386f26fc100006a71f78cd494d9de56a00000635c26b900336000806101000a81548173ffffffffffffffffffffffffffffffffffffffff021916908373ffffffffffffffffffffffffffffffffffffffff16021790555086600360006101000a81548173ffffffffffffffffffffffffffffffffffffffff021916908373ffffffffffffffffffffffffffffffffffffffff16021790555085600260006101000a81548173ffffffffffffffffffffffffffffffffffffffff021916908373ffffffffffffffffffffffffffffffffffffffff16021790555084600160006101000a81548173ffffffffffffffffffffffffffffffffffffffff021916908373ffffffffffffffffffffffffffffffffffffffff1602179055508360078190555082600681905550816004819055508060088190555050505050505050505050611fe7806101ce6000396000f30060606040526004361061016a576000357c0100000000000000000000000000000000000000000000000000000000900463ffffffff1680630262dc13146101745780630a384665146101ad5780632511b182146101d657806326ffee08146101ff5780633171188414610241578063380d0c081461026a5780633c78fe071461027f5780633f4ba83a146102e85780634e71d92d146102fd5780635c975abb1461031257806361241c281461033f5780637822ed49146103625780637b352962146103b75780638456cb59146103e45780638da5cb5b146103f9578063a6f2ae3a1461044e578063a72a05f714610458578063d1058e591461048d578063d56b2889146104a2578063d6f7ddf9146104b7578063d8b964e6146104f9578063daea85c51461054a578063e486033914610583578063e69b414b146105d0578063eee30468146105f9578063f2fde38b1461063b578063f5d82b6b14610674578063fc0c546a146106b6575b61017261070b565b005b341561017f57600080fd5b6101ab600480803573ffffffffffffffffffffffffffffffffffffffff1690602001909190505061091c565b005b34156101b857600080fd5b6101c061099f565b6040518082815260200191505060405180910390f35b34156101e157600080fd5b6101e96109a5565b6040518082815260200191505060405180910390f35b341561020a57600080fd5b61023f600480803573ffffffffffffffffffffffffffffffffffffffff169060200190919080359060200190919050506109ab565b005b341561024c57600080fd5b610254610b94565b6040518082815260200191505060405180910390f35b341561027557600080fd5b61027d610b9a565b005b341561028a57600080fd5b6102a6600480803563ffffffff16906020019091905050610c9b565b604051808273ffffffffffffffffffffffffffffffffffffffff1673ffffffffffffffffffffffffffffffffffffffff16815260200191505060405180910390f35b34156102f357600080fd5b6102fb610d3f565b005b341561030857600080fd5b610310610dfd565b005b341561031d57600080fd5b610325610e24565b604051808215151515815260200191505060405180910390f35b341561034a57600080fd5b6103606004808035906020019091905050610e37565b005b341561036d57600080fd5b610375610eab565b604051808273ffffffffffffffffffffffffffffffffffffffff1673ffffffffffffffffffffffffffffffffffffffff16815260200191505060405180910390f35b34156103c257600080fd5b6103ca610ed1565b604051808215151515815260200191505060405180910390f35b34156103ef57600080fd5b6103f7610ee4565b005b341561040457600080fd5b61040c610fa4565b604051808273ffffffffffffffffffffffffffffffffffffffff1673ffffffffffffffffffffffffffffffffffffffff16815260200191505060405180910390f35b61045661070b565b005b341561046357600080fd5b61046b610fc9565b604051808263ffffffff1663ffffffff16815260200191505060405180910390f35b341561049857600080fd5b6104a061103e565b005b34156104ad57600080fd5b6104b56111dd565b005b34156104c257600080fd5b6104f7600480803573ffffffffffffffffffffffffffffffffffffffff1690602001909190803590602001909190505061147a565b005b341561050457600080fd5b610530600480803573ffffffffffffffffffffffffffffffffffffffff1690602001909190505061158a565b604051808215151515815260200191505060405180910390f35b341561055557600080fd5b610581600480803573ffffffffffffffffffffffffffffffffffffffff169060200190919050506115aa565b005b341561058e57600080fd5b6105ba600480803573ffffffffffffffffffffffffffffffffffffffff1690602001909190505061167c565b6040518082815260200191505060405180910390f35b34156105db57600080fd5b6105e3611694565b6040518082815260200191505060405180910390f35b341561060457600080fd5b610639600480803573ffffffffffffffffffffffffffffffffffffffff1690602001909190803590602001909190505061169a565b005b341561064657600080fd5b610672600480803573ffffffffffffffffffffffffffffffffffffffff16906020019091905050611788565b005b341561067f57600080fd5b6106b4600480803573ffffffffffffffffffffffffffffffffffffffff169060200190919080359060200190919050506118dd565b005b34156106c157600080fd5b6106c9611a2c565b604051808273ffffffffffffffffffffffffffffffffffffffff1673ffffffffffffffffffffffffffffffffffffffff16815260200191505060405180910390f35b6000806000600960009054906101000a900460ff1615151561072c57600080fd5b60045460055410151561073e57600080fd5b600854421115151561074f57600080fd5b600060149054906101000a900460ff1615151561076b57600080fd5b3492506000915061078783600754611a5290919063ffffffff16565b9050600454816005540111156107dd576107ae600554600454611a8d90919063ffffffff16565b90506107c560075482611aa690919063ffffffff16565b92506107da8334611a8d90919063ffffffff16565b91505b6107f281600554611ac190919063ffffffff16565b6005819055506004546005541115151561080b57600080fd5b6108153382611adf565b3373ffffffffffffffffffffffffffffffffffffffff167f28cab0d660ed8aedd61a8c9db00b97f6a2d67e07d87795994f440b18bc5f1aa38285604051808381526020018281526020019250505060405180910390a2600160009054906101000a900473ffffffffffffffffffffffffffffffffffffffff1673ffffffffffffffffffffffffffffffffffffffff166108fc849081150290604051600060405180830381858888f1935050505015156108cd57600080fd5b6000821115610917573373ffffffffffffffffffffffffffffffffffffffff166108fc839081150290604051600060405180830381858888f19350505050151561091657600080fd5b5b505050565b6000809054906101000a900473ffffffffffffffffffffffffffffffffffffffff1673ffffffffffffffffffffffffffffffffffffffff163373ffffffffffffffffffffffffffffffffffffffff1614151561097757600080fd5b600060149054906101000a900460ff1615151561099357600080fd5b61099c81611ce0565b50565b60045481565b60065481565b60008060009054906101000a900473ffffffffffffffffffffffffffffffffffffffff1673ffffffffffffffffffffffffffffffffffffffff163373ffffffffffffffffffffffffffffffffffffffff16141515610a0857600080fd5b600060149054906101000a900460ff16151515610a2457600080fd5b610a3982600754611a5290919063ffffffff16565b905080600a60008573ffffffffffffffffffffffffffffffffffffffff1673ffffffffffffffffffffffffffffffffffffffff1681526020019081526020016000205410151515610a8957600080fd5b610adb81600a60008673ffffffffffffffffffffffffffffffffffffffff1673ffffffffffffffffffffffffffffffffffffffff16815260200190815260200160002054611a8d90919063ffffffff16565b600a60008573ffffffffffffffffffffffffffffffffffffffff1673ffffffffffffffffffffffffffffffffffffffff16815260200190815260200160002081905550610b3381600554611a8d90919063ffffffff16565b6005819055508273ffffffffffffffffffffffffffffffffffffffff167f2da8b2becb27b189a54d21689aa110c877379a94c6f59f115cedc91d66239b338284604051808381526020018281526020019250505060405180910390a2505050565b60075481565b6000806000809054906101000a900473ffffffffffffffffffffffffffffffffffffffff1673ffffffffffffffffffffffffffffffffffffffff163373ffffffffffffffffffffffffffffffffffffffff16141515610bf857600080fd5b600060149054906101000a900460ff16151515610c1457600080fd5b600091505b600d60009054906101000a900463ffffffff1663ffffffff168263ffffffff161015610c9757600c60008363ffffffff1663ffffffff16815260200190815260200160002060009054906101000a900473ffffffffffffffffffffffffffffffffffffffff169050610c8a816115aa565b8180600101925050610c19565b5050565b60008060009054906101000a900473ffffffffffffffffffffffffffffffffffffffff1673ffffffffffffffffffffffffffffffffffffffff163373ffffffffffffffffffffffffffffffffffffffff16141515610cf857600080fd5b600c60008363ffffffff1663ffffffff16815260200190815260200160002060009054906101000a900473ffffffffffffffffffffffffffffffffffffffff169050919050565b6000809054906101000a900473ffffffffffffffffffffffffffffffffffffffff1673ffffffffffffffffffffffffffffffffffffffff163373ffffffffffffffffffffffffffffffffffffffff16141515610d9a57600080fd5b600060149054906101000a900460ff161515610db557600080fd5b60008060146101000a81548160ff0219169083151502179055507f7805862f689e2f13df9f062ff482ad3ad112aca9e0847911ed832e158c525b3360405160405180910390a1565b600060149054906101000a900460ff16151515610e1957600080fd5b610e2233611ce0565b565b600060149054906101000a900460ff1681565b6000809054906101000a900473ffffffffffffffffffffffffffffffffffffffff1673ffffffffffffffffffffffffffffffffffffffff163373ffffffffffffffffffffffffffffffffffffffff16141515610e9257600080fd5b600081111515610ea157600080fd5b8060078190555050565b600260009054906101000a900473ffffffffffffffffffffffffffffffffffffffff1681565b600960009054906101000a900460ff1681565b6000809054906101000a900473ffffffffffffffffffffffffffffffffffffffff1673ffffffffffffffffffffffffffffffffffffffff163373ffffffffffffffffffffffffffffffffffffffff16141515610f3f57600080fd5b600060149054906101000a900460ff16151515610f5b57600080fd5b6001600060146101000a81548160ff0219169083151502179055507f6985a02210a168e66602d3235cb6db0e70f92b3ba4d376a33c0f3d9434bff62560405160405180910390a1565b6000809054906101000a900473ffffffffffffffffffffffffffffffffffffffff1681565b60008060009054906101000a900473ffffffffffffffffffffffffffffffffffffffff1673ffffffffffffffffffffffffffffffffffffffff163373ffffffffffffffffffffffffffffffffffffffff1614151561102657600080fd5b600d60009054906101000a900463ffffffff16905090565b6000806000809054906101000a900473ffffffffffffffffffffffffffffffffffffffff1673ffffffffffffffffffffffffffffffffffffffff163373ffffffffffffffffffffffffffffffffffffffff1614151561109c57600080fd5b600060149054906101000a900460ff161515156110b857600080fd5b600091505b600d60009054906101000a900463ffffffff1663ffffffff168263ffffffff1610156111d957600c60008363ffffffff1663ffffffff16815260200190815260200160002060009054906101000a900473ffffffffffffffffffffffffffffffffffffffff169050600b60008273ffffffffffffffffffffffffffffffffffffffff1673ffffffffffffffffffffffffffffffffffffffff16815260200190815260200160002060009054906101000a900460ff1680156111bd57506000600a60008373ffffffffffffffffffffffffffffffffffffffff1673ffffffffffffffffffffffffffffffffffffffff16815260200190815260200160002054115b156111cc576111cb81611ce0565b5b81806001019250506110bd565b5050565b6000809054906101000a900473ffffffffffffffffffffffffffffffffffffffff1673ffffffffffffffffffffffffffffffffffffffff163373ffffffffffffffffffffffffffffffffffffffff1614151561123857600080fd5b60045460055410158061124c575060085442115b151561125757600080fd5b600960009054906101000a900460ff1615151561127357600080fd5b6001600960006101000a81548160ff021916908315150217905550600360009054906101000a900473ffffffffffffffffffffffffffffffffffffffff1673ffffffffffffffffffffffffffffffffffffffff1663a9059cbb600260009054906101000a900473ffffffffffffffffffffffffffffffffffffffff16600360009054906101000a900473ffffffffffffffffffffffffffffffffffffffff1673ffffffffffffffffffffffffffffffffffffffff166370a08231306000604051602001526040518263ffffffff167c0100000000000000000000000000000000000000000000000000000000028152600401808273ffffffffffffffffffffffffffffffffffffffff1673ffffffffffffffffffffffffffffffffffffffff168152602001915050602060405180830381600087803b15156113b457600080fd5b6102c65a03f115156113c557600080fd5b505050604051805190506000604051602001526040518363ffffffff167c0100000000000000000000000000000000000000000000000000000000028152600401808373ffffffffffffffffffffffffffffffffffffffff1673ffffffffffffffffffffffffffffffffffffffff16815260200182815260200192505050602060405180830381600087803b151561145c57600080fd5b6102c65a03f1151561146d57600080fd5b5050506040518051905050565b60008060009054906101000a900473ffffffffffffffffffffffffffffffffffffffff1673ffffffffffffffffffffffffffffffffffffffff163373ffffffffffffffffffffffffffffffffffffffff161415156114d757600080fd5b600060149054906101000a900460ff161515156114f357600080fd5b61150882600754611a5290919063ffffffff16565b905061151f81600554611ac190919063ffffffff16565b60058190555061152f8382611adf565b8273ffffffffffffffffffffffffffffffffffffffff167ff10143e1b37ebaf3698e98976d8bddabcea045adc939c03b245da18e81ea96518284604051808381526020018281526020019250505060405180910390a2505050565b600b6020528060005260406000206000915054906101000a900460ff1681565b6000809054906101000a900473ffffffffffffffffffffffffffffffffffffffff1673ffffffffffffffffffffffffffffffffffffffff163373ffffffffffffffffffffffffffffffffffffffff1614151561160557600080fd5b600060149054906101000a900460ff1615151561162157600080fd5b6001600b60008373ffffffffffffffffffffffffffffffffffffffff1673ffffffffffffffffffffffffffffffffffffffff16815260200190815260200160002060006101000a81548160ff02191690831515021790555050565b600a6020528060005260406000206000915090505481565b60055481565b6000809054906101000a900473ffffffffffffffffffffffffffffffffffffffff1673ffffffffffffffffffffffffffffffffffffffff163373ffffffffffffffffffffffffffffffffffffffff161415156116f557600080fd5b600060149054906101000a900460ff1615151561171157600080fd5b61172681600554611ac190919063ffffffff16565b6005819055506117368282611adf565b8173ffffffffffffffffffffffffffffffffffffffff167fda3b4bd5d0318cb8ec5ccd5cf9d80332d3809ba7ecac213080f0c7b22e01947d826040518082815260200191505060405180910390a25050565b6000809054906101000a900473ffffffffffffffffffffffffffffffffffffffff1673ffffffffffffffffffffffffffffffffffffffff163373ffffffffffffffffffffffffffffffffffffffff161415156117e357600080fd5b600073ffffffffffffffffffffffffffffffffffffffff168173ffffffffffffffffffffffffffffffffffffffff161415151561181f57600080fd5b8073ffffffffffffffffffffffffffffffffffffffff166000809054906101000a900473ffffffffffffffffffffffffffffffffffffffff1673ffffffffffffffffffffffffffffffffffffffff167f8be0079c531659141344cd1fd0a4f28419497f9722a3daafe3b4186f6b6457e060405160405180910390a3806000806101000a81548173ffffffffffffffffffffffffffffffffffffffff021916908373ffffffffffffffffffffffffffffffffffffffff16021790555050565b60008060009054906101000a900473ffffffffffffffffffffffffffffffffffffffff1673ffffffffffffffffffffffffffffffffffffffff163373ffffffffffffffffffffffffffffffffffffffff1614151561193a57600080fd5b600960009054906101000a900460ff1615151561195657600080fd5b60045460055410151561196857600080fd5b600854421115151561197957600080fd5b600060149054906101000a900460ff1615151561199557600080fd5b6119aa82600754611a5290919063ffffffff16565b90506119c181600554611ac190919063ffffffff16565b6005819055506119d18382611adf565b8273ffffffffffffffffffffffffffffffffffffffff167fa818a22273fc309f0a3682b642c74c5b5c25c0615ff378d07767cd231e19fffc8284604051808381526020018281526020019250505060405180910390a2505050565b600360009054906101000a900473ffffffffffffffffffffffffffffffffffffffff1681565b6000806000841415611a675760009150611a86565b8284029050828482811515611a7857fe5b04141515611a8257fe5b8091505b5092915050565b6000828211151515611a9b57fe5b818303905092915050565b6000808284811515611ab457fe5b0490508091505092915050565b6000808284019050838110151515611ad557fe5b8091505092915050565b600060149054906101000a900460ff16151515611afb57600080fd5b6000600a60008473ffffffffffffffffffffffffffffffffffffffff1673ffffffffffffffffffffffffffffffffffffffff168152602001908152602001600020541415611c475781600c6000600d60009054906101000a900463ffffffff1663ffffffff1663ffffffff16815260200190815260200160002060006101000a81548173ffffffffffffffffffffffffffffffffffffffff021916908373ffffffffffffffffffffffffffffffffffffffff160217905550600d600081819054906101000a900463ffffffff168092919060010191906101000a81548163ffffffff021916908363ffffffff160217905550506000600b60008473ffffffffffffffffffffffffffffffffffffffff1673ffffffffffffffffffffffffffffffffffffffff16815260200190815260200160002060006101000a81548160ff0219169083151502179055505b611c9981600a60008573ffffffffffffffffffffffffffffffffffffffff1673ffffffffffffffffffffffffffffffffffffffff16815260200190815260200160002054611ac190919063ffffffff16565b600a60008473ffffffffffffffffffffffffffffffffffffffff1673ffffffffffffffffffffffffffffffffffffffff168152602001908152602001600020819055505050565b60008060149054906101000a900460ff16151515611cfd57600080fd5b600b60008373ffffffffffffffffffffffffffffffffffffffff1673ffffffffffffffffffffffffffffffffffffffff16815260200190815260200160002060009054906101000a900460ff161515611d5557600080fd5b6000600a60008473ffffffffffffffffffffffffffffffffffffffff1673ffffffffffffffffffffffffffffffffffffffff16815260200190815260200160002054111515611da357600080fd5b600a60008373ffffffffffffffffffffffffffffffffffffffff1673ffffffffffffffffffffffffffffffffffffffff1681526020019081526020016000205490506000600a60008473ffffffffffffffffffffffffffffffffffffffff1673ffffffffffffffffffffffffffffffffffffffff16815260200190815260200160002081905550600360009054906101000a900473ffffffffffffffffffffffffffffffffffffffff1673ffffffffffffffffffffffffffffffffffffffff166323b872dd600260009054906101000a900473ffffffffffffffffffffffffffffffffffffffff1684846000604051602001526040518463ffffffff167c0100000000000000000000000000000000000000000000000000000000028152600401808473ffffffffffffffffffffffffffffffffffffffff1673ffffffffffffffffffffffffffffffffffffffff1681526020018373ffffffffffffffffffffffffffffffffffffffff1673ffffffffffffffffffffffffffffffffffffffff1681526020018281526020019350505050602060405180830381600087803b1515611f4d57600080fd5b6102c65a03f11515611f5e57600080fd5b50505060405180519050508173ffffffffffffffffffffffffffffffffffffffff167fd4ff88d569a7ad2bfd6b17da9dbe82e2ccc016fd0051e08ff1ad1e6fe8fc9b55826040518082815260200191505060405180910390a250505600a165627a7a723058200f6dba30e906b64a1b6e2d03d41c50298d93706d2ce49f3bda3f51337328a6a80029",
  "source": "pragma solidity ^0.4.11;\n\n\nimport './ClaimableCrowdsale.sol';\n\n\n/**\n * @title HoQuBounty\n * @dev HoQu.io Bounty\n */\ncontract HoQuBounty is ClaimableCrowdsale {\n\n    event TokenAddedByBounty(address indexed _receiver, uint256 _tokens);\n\n    /**\n    * @param _tokenAddress address of a HQX token contract\n    * @param _bankAddress address for remain HQX tokens accumulation\n    * @param _beneficiaryAddress accepted ETH go to this address\n    */\n    function HoQuBounty(\n        address _tokenAddress,\n        address _bankAddress,\n        address _beneficiaryAddress\n    ) ClaimableCrowdsale(\n        _tokenAddress,\n        _bankAddress,\n        _beneficiaryAddress,\n        6000,\n        10000000000000000,\n        137777640000000000000000000,\n        1546041600\n    ) {\n\n    }\n\n    /**\n     * Add HQX by bounty program. Tokens will be stored in contract until claim stage\n     */\n    function addByBounty(address _receiver, uint256 _tokensAmount) onlyOwner whenNotPaused {\n        issuedTokensAmount = issuedTokensAmount.add(_tokensAmount);\n\n        storeTokens(_receiver, _tokensAmount);\n        TokenAddedByBounty(_receiver, _tokensAmount);\n    }\n\n    /**\n     * Approve all addresses\n     */\n    function approveAll() onlyOwner whenNotPaused {\n        for (uint32 i = 0; i < receiversCount; i++) {\n            address receiver = tokenReceivers[i];\n            approve(receiver);\n        }\n    }\n}",
  "sourcePath": "/Users/slash686/Projects/hoqu-sale-github/contracts/HoQuBounty.sol",
  "compiler": {
    "name": "solc",
    "version": "0.4.18+commit.9cf6e910.Emscripten.clang"
  },
  "schemaVersion": "1.0.1",
  "updatedAt": "2017-12-05T07:53:53.922Z"
}